{
  "contractName": "Battle",
  "abi": [
    {
      "inputs": [
        {
          "internalType": "address",
          "name": "warriorAddr",
          "type": "address"
        }
      ],
      "stateMutability": "nonpayable",
      "type": "constructor"
    },
    {
      "stateMutability": "payable",
      "type": "fallback"
    },
    {
      "inputs": [],
      "name": "creator",
      "outputs": [
        {
          "internalType": "address",
          "name": "",
          "type": "address"
        }
      ],
      "stateMutability": "view",
      "type": "function"
    },
    {
      "inputs": [],
      "name": "enemyAttack",
      "outputs": [
        {
          "internalType": "uint8",
          "name": "",
          "type": "uint8"
        }
      ],
      "stateMutability": "view",
      "type": "function"
    },
    {
      "inputs": [],
      "name": "enemyDefense",
      "outputs": [
        {
          "internalType": "uint8",
          "name": "",
          "type": "uint8"
        }
      ],
      "stateMutability": "view",
      "type": "function"
    },
    {
      "inputs": [],
      "name": "enemyMagic",
      "outputs": [
        {
          "internalType": "uint8",
          "name": "",
          "type": "uint8"
        }
      ],
      "stateMutability": "view",
      "type": "function"
    },
    {
      "inputs": [
        {
          "internalType": "uint256",
          "name": "",
          "type": "uint256"
        }
      ],
      "name": "factionList",
      "outputs": [
        {
          "internalType": "uint256",
          "name": "warPoints",
          "type": "uint256"
        },
        {
          "internalType": "uint256",
          "name": "totalStake",
          "type": "uint256"
        },
        {
          "internalType": "uint256",
          "name": "participant",
          "type": "uint256"
        }
      ],
      "stateMutability": "view",
      "type": "function"
    },
    {
      "inputs": [],
      "name": "finished",
      "outputs": [
        {
          "internalType": "bool",
          "name": "",
          "type": "bool"
        }
      ],
      "stateMutability": "view",
      "type": "function"
    },
    {
      "inputs": [],
      "name": "prize",
      "outputs": [
        {
          "internalType": "uint256",
          "name": "",
          "type": "uint256"
        }
      ],
      "stateMutability": "view",
      "type": "function"
    },
    {
      "inputs": [],
      "name": "totalWarPoints",
      "outputs": [
        {
          "internalType": "uint256",
          "name": "",
          "type": "uint256"
        }
      ],
      "stateMutability": "view",
      "type": "function"
    },
    {
      "inputs": [],
      "name": "warriorAddress",
      "outputs": [
        {
          "internalType": "address",
          "name": "",
          "type": "address"
        }
      ],
      "stateMutability": "view",
      "type": "function"
    },
    {
      "inputs": [
        {
          "internalType": "uint256",
          "name": "",
          "type": "uint256"
        }
      ],
      "name": "warriorList",
      "outputs": [
        {
          "internalType": "uint256",
          "name": "nftId",
          "type": "uint256"
        },
        {
          "internalType": "uint256",
          "name": "warPoints",
          "type": "uint256"
        },
        {
          "internalType": "uint8",
          "name": "faction",
          "type": "uint8"
        },
        {
          "internalType": "address",
          "name": "owner",
          "type": "address"
        },
        {
          "internalType": "bool",
          "name": "leave",
          "type": "bool"
        }
      ],
      "stateMutability": "view",
      "type": "function"
    },
    {
      "inputs": [],
      "name": "winner",
      "outputs": [
        {
          "internalType": "uint8",
          "name": "",
          "type": "uint8"
        }
      ],
      "stateMutability": "view",
      "type": "function"
    },
    {
      "inputs": [],
      "name": "winningNumber",
      "outputs": [
        {
          "internalType": "uint256",
          "name": "",
          "type": "uint256"
        }
      ],
      "stateMutability": "view",
      "type": "function"
    },
    {
      "stateMutability": "payable",
      "type": "receive"
    },
    {
      "inputs": [],
      "name": "stat",
      "outputs": [
        {
          "internalType": "uint256",
          "name": "",
          "type": "uint256"
        },
        {
          "internalType": "uint256",
          "name": "",
          "type": "uint256"
        }
      ],
      "stateMutability": "view",
      "type": "function"
    },
    {
      "inputs": [
        {
          "internalType": "uint8",
          "name": "enemyAtk",
          "type": "uint8"
        },
        {
          "internalType": "uint8",
          "name": "enemyDef",
          "type": "uint8"
        },
        {
          "internalType": "uint8",
          "name": "enemyMgc",
          "type": "uint8"
        }
      ],
      "name": "start",
      "outputs": [],
      "stateMutability": "payable",
      "type": "function"
    },
    {
      "inputs": [
        {
          "internalType": "uint256",
          "name": "nftId",
          "type": "uint256"
        },
        {
          "internalType": "uint8",
          "name": "faction",
          "type": "uint8"
        }
      ],
      "name": "join",
      "outputs": [],
      "stateMutability": "nonpayable",
      "type": "function"
    },
    {
      "inputs": [
        {
          "internalType": "uint256",
          "name": "nftId",
          "type": "uint256"
        }
      ],
      "name": "leave",
      "outputs": [],
      "stateMutability": "nonpayable",
      "type": "function"
    },
    {
      "inputs": [],
      "name": "finish",
      "outputs": [],
      "stateMutability": "nonpayable",
      "type": "function"
    },
    {
      "inputs": [
        {
          "internalType": "address",
          "name": "",
          "type": "address"
        },
        {
          "internalType": "address",
          "name": "",
          "type": "address"
        },
        {
          "internalType": "uint256",
          "name": "",
          "type": "uint256"
        },
        {
          "internalType": "bytes",
          "name": "",
          "type": "bytes"
        }
      ],
      "name": "onERC721Received",
      "outputs": [
        {
          "internalType": "bytes4",
          "name": "",
          "type": "bytes4"
        }
      ],
      "stateMutability": "nonpayable",
      "type": "function"
    }
  ],
  "bytecode": "0x60806040523480156200001157600080fd5b50604051620024c2380380620024c283398181016040528101906200003791906200037d565b33600160006101000a81548173ffffffffffffffffffffffffffffffffffffffff021916908373ffffffffffffffffffffffffffffffffffffffff16021790555080600260006101000a81548173ffffffffffffffffffffffffffffffffffffffff021916908373ffffffffffffffffffffffffffffffffffffffff160217905550600360405180606001604052806000815260200160008152602001600081525090806001815401808255809150506001900390600052602060002090600302016000909190919091506000820151816000015560208201518160010155604082015181600201555050600360405180606001604052806000815260200160008152602001600081525090806001815401808255809150506001900390600052602060002090600302016000909190919091506000820151816000015560208201518160010155604082015181600201555050600360405180606001604052806000815260200160008152602001600081525090806001815401808255809150506001900390600052602060002090600302016000909190919091506000820151816000015560208201518160010155604082015181600201555050600060048190555060096040518060a001604052806000815260200160008152602001600060ff168152602001600073ffffffffffffffffffffffffffffffffffffffff168152602001600015158152509080600181540180825580915050600190039060005260206000209060030201600090919091909150600082015181600001556020820151816001015560408201518160020160006101000a81548160ff021916908360ff16021790555060608201518160020160016101000a81548173ffffffffffffffffffffffffffffffffffffffff021916908373ffffffffffffffffffffffffffffffffffffffff16021790555060808201518160020160156101000a81548160ff021916908315150217905550505050620003af565b600080fd5b600073ffffffffffffffffffffffffffffffffffffffff82169050919050565b6000620003458262000318565b9050919050565b620003578162000338565b81146200036357600080fd5b50565b60008151905062000377816200034c565b92915050565b60006020828403121562000396576200039562000313565b5b6000620003a68482850162000366565b91505092915050565b61210380620003bf6000396000f3fe60806040526004361061010d5760003560e01c806386f024b511610095578063d56b288911610064578063d56b288914610345578063df8b13661461035c578063dfbf53ae1461039d578063e3ac5d26146103c8578063e6cb75c3146103f357610114565b806386f024b5146102aa578063a2777f62146102d3578063b8869ad3146102fe578063bef4876b1461031a57610114565b8063150b7a02116100dc578063150b7a02146101c357806322f69be714610200578063255b03731461022b5780634664611e1461025657806367dfd4c91461028157610114565b806302d05d3f146101165780630435a74514610141578063051229c81461016d5780630782b99e1461019857610114565b3661011457005b005b34801561012257600080fd5b5061012b610432565b60405161013891906113aa565b60405180910390f35b34801561014d57600080fd5b50610156610458565b6040516101649291906113de565b60405180910390f35b34801561017957600080fd5b5061018261046f565b60405161018f9190611423565b60405180910390f35b3480156101a457600080fd5b506101ad610482565b6040516101ba91906113aa565b60405180910390f35b3480156101cf57600080fd5b506101ea60048036038101906101e591906115f0565b6104a8565b6040516101f791906116ae565b60405180910390f35b34801561020c57600080fd5b506102156104bc565b60405161022291906116c9565b60405180910390f35b34801561023757600080fd5b506102406104c2565b60405161024d9190611423565b60405180910390f35b34801561026257600080fd5b5061026b6104d5565b60405161027891906116c9565b60405180910390f35b34801561028d57600080fd5b506102a860048036038101906102a391906116e4565b6104db565b005b3480156102b657600080fd5b506102d160048036038101906102cc919061173d565b610916565b005b3480156102df57600080fd5b506102e8610f4e565b6040516102f59190611423565b60405180910390f35b6103186004803603810190610313919061177d565b610f61565b005b34801561032657600080fd5b5061032f61104e565b60405161033c91906117eb565b60405180910390f35b34801561035157600080fd5b5061035a611061565b005b34801561036857600080fd5b50610383600480360381019061037e91906116e4565b6111bf565b604051610394959493929190611806565b60405180910390f35b3480156103a957600080fd5b506103b261123f565b6040516103bf9190611423565b60405180910390f35b3480156103d457600080fd5b506103dd611252565b6040516103ea91906116c9565b60405180910390f35b3480156103ff57600080fd5b5061041a600480360381019061041591906116e4565b611258565b60405161042993929190611859565b60405180910390f35b600160009054906101000a900473ffffffffffffffffffffffffffffffffffffffff1681565b600080600380549050600980549050915091509091565b600b60009054906101000a900460ff1681565b600260009054906101000a900473ffffffffffffffffffffffffffffffffffffffff1681565b600063150b7a0260e01b9050949350505050565b60045481565b600b60029054906101000a900460ff1681565b60075481565b600860009054906101000a900460ff1661052a576040517f08c379a0000000000000000000000000000000000000000000000000000000008152600401610521906118ed565b60405180910390fd5b6000600a600083815260200190815260200160002054905060008111610585576040517f08c379a000000000000000000000000000000000000000000000000000000000815260040161057c90611959565b60405180910390fd5b60006009828154811061059b5761059a611979565b5b90600052602060002090600302016040518060a001604052908160008201548152602001600182015481526020016002820160009054906101000a900460ff1660ff1660ff1681526020016002820160019054906101000a900473ffffffffffffffffffffffffffffffffffffffff1673ffffffffffffffffffffffffffffffffffffffff1673ffffffffffffffffffffffffffffffffffffffff1681526020016002820160159054906101000a900460ff16151515158152505090503373ffffffffffffffffffffffffffffffffffffffff16816060015173ffffffffffffffffffffffffffffffffffffffff16146106ca576040517f08c379a00000000000000000000000000000000000000000000000000000000081526004016106c1906119f4565b60405180910390fd5b80608001511561070f576040517f08c379a000000000000000000000000000000000000000000000000000000000815260040161070690611a60565b60405180910390fd5b60016009838154811061072557610724611979565b5b906000526020600020906003020160020160156101000a81548160ff021916908315150217905550600660009054906101000a900460ff1660ff16816040015160ff16036108805760006003600660009054906101000a900460ff1660ff168154811061079557610794611979565b5b9060005260206000209060030201600001549050600082602001519050600082826005546107c39190611aaf565b6107cd9190611b20565b905060003373ffffffffffffffffffffffffffffffffffffffff16826040516107f590611b82565b60006040518083038185875af1925050503d8060008114610832576040519150601f19603f3d011682016040523d82523d6000602084013e610837565b606091505b505090508061087b576040517f08c379a000000000000000000000000000000000000000000000000000000000815260040161087290611be3565b60405180910390fd5b505050505b600260009054906101000a900473ffffffffffffffffffffffffffffffffffffffff1673ffffffffffffffffffffffffffffffffffffffff166342842e0e3033866040518463ffffffff1660e01b81526004016108df93929190611c03565b600060405180830381600087803b1580156108f957600080fd5b505af115801561090d573d6000803e3d6000fd5b50505050505050565b6000600260009054906101000a900473ffffffffffffffffffffffffffffffffffffffff1673ffffffffffffffffffffffffffffffffffffffff16636352211e846040518263ffffffff1660e01b815260040161097391906116c9565b602060405180830381865afa158015610990573d6000803e3d6000fd5b505050506040513d601f19601f820116820180604052508101906109b49190611c4f565b90503373ffffffffffffffffffffffffffffffffffffffff168173ffffffffffffffffffffffffffffffffffffffff1614610a24576040517f08c379a0000000000000000000000000000000000000000000000000000000008152600401610a1b906119f4565b60405180910390fd5b6003805490508260ff1610610a6e576040517f08c379a0000000000000000000000000000000000000000000000000000000008152600401610a6590611cc8565b60405180910390fd5b6000600a60008581526020019081526020016000205414610ac4576040517f08c379a0000000000000000000000000000000000000000000000000000000008152600401610abb90611d34565b60405180910390fd5b600260009054906101000a900473ffffffffffffffffffffffffffffffffffffffff1673ffffffffffffffffffffffffffffffffffffffff166342842e0e3330866040518463ffffffff1660e01b8152600401610b2393929190611c03565b600060405180830381600087803b158015610b3d57600080fd5b505af1158015610b51573d6000803e3d6000fd5b505050506000806000806000600260009054906101000a900473ffffffffffffffffffffffffffffffffffffffff1673ffffffffffffffffffffffffffffffffffffffff16632e519592896040518263ffffffff1660e01b8152600401610bb891906116c9565b60c060405180830381865afa158015610bd5573d6000803e3d6000fd5b505050506040513d601f19601f82011682018060405250810190610bf99190611d7e565b955095509550955095505060006019600183610c159190611e0b565b610c1f9190611e40565b6064610c2b9190611e7d565b60ff169050600068056bc75e2d6310000087610c479190611b20565b9050600060019050600b60019054906101000a900460ff1660ff168760ff161115610c9857600b60019054906101000a900460ff1687610c879190611e0b565b60ff1681610c959190611eb2565b90505b600b60009054906101000a900460ff1660ff168660ff161115610ce157600b60009054906101000a900460ff1686610cd09190611e0b565b60ff1681610cde9190611eb2565b90505b600b60029054906101000a900460ff1660ff168560ff161115610d2a57600b60029054906101000a900460ff1685610d199190611e0b565b60ff1681610d279190611eb2565b90505b8281610d369190611aaf565b90508181610d449190611aaf565b905080600454610d549190611eb2565b600481905550600980549050600a60008d81526020019081526020016000208190555060096040518060a001604052808d81526020018381526020018c60ff1681526020013373ffffffffffffffffffffffffffffffffffffffff168152602001600015158152509080600181540180825580915050600190039060005260206000209060030201600090919091909150600082015181600001556020820151816001015560408201518160020160006101000a81548160ff021916908360ff16021790555060608201518160020160016101000a81548173ffffffffffffffffffffffffffffffffffffffff021916908373ffffffffffffffffffffffffffffffffffffffff16021790555060808201518160020160156101000a81548160ff02191690831515021790555050508060038b60ff1681548110610e9b57610e9a611979565b5b90600052602060002090600302016000016000828254610ebb9190611eb2565b925050819055508760038b60ff1681548110610eda57610ed9611979565b5b90600052602060002090600302016001016000828254610efa9190611eb2565b92505081905550600160038b60ff1681548110610f1a57610f19611979565b5b90600052602060002090600302016002016000828254610f3a9190611eb2565b925050819055505050505050505050505050565b600b60019054906101000a900460ff1681565b600160009054906101000a900473ffffffffffffffffffffffffffffffffffffffff1673ffffffffffffffffffffffffffffffffffffffff163373ffffffffffffffffffffffffffffffffffffffff1614610ff1576040517f08c379a0000000000000000000000000000000000000000000000000000000008152600401610fe890611f32565b60405180910390fd5b3460058190555082600b60006101000a81548160ff021916908360ff16021790555081600b60016101000a81548160ff021916908360ff16021790555080600b60026101000a81548160ff021916908360ff160217905550505050565b600860009054906101000a900460ff1681565b600160009054906101000a900473ffffffffffffffffffffffffffffffffffffffff1673ffffffffffffffffffffffffffffffffffffffff163373ffffffffffffffffffffffffffffffffffffffff16146110f1576040517f08c379a00000000000000000000000000000000000000000000000000000000081526004016110e890611f32565b60405180910390fd5b60006003805490509050600454611106611292565b6111109190611f52565b600781905550600080600090505b8260ff168160ff16101561119f5760038160ff168154811061114357611142611979565b5b906000526020600020906003020160000154826111609190611eb2565b915081600754101561118c5780600660006101000a81548160ff021916908360ff16021790555061119f565b808061119790611f83565b91505061111e565b506001600860006101000a81548160ff0219169083151502179055505050565b600981815481106111cf57600080fd5b90600052602060002090600302016000915090508060000154908060010154908060020160009054906101000a900460ff16908060020160019054906101000a900473ffffffffffffffffffffffffffffffffffffffff16908060020160159054906101000a900460ff16905085565b600660009054906101000a900460ff1681565b60055481565b6003818154811061126857600080fd5b90600052602060002090600302016000915090508060000154908060010154908060020154905083565b60008060008154809291906112a690611fac565b919050555060006112b56112f9565b9050600081426000543344326040516020016112d69695949392919061205d565b6040516020818303038152906040528051906020012060001c9050809250505090565b600080611304611347565b438160006001811061131957611318611979565b5b60200201818152505060405160208160208460ff600019fa61133757fe5b80519250508160001c9250505090565b6040518060200160405280600190602082028036833780820191505090505090565b600073ffffffffffffffffffffffffffffffffffffffff82169050919050565b600061139482611369565b9050919050565b6113a481611389565b82525050565b60006020820190506113bf600083018461139b565b92915050565b6000819050919050565b6113d8816113c5565b82525050565b60006040820190506113f360008301856113cf565b61140060208301846113cf565b9392505050565b600060ff82169050919050565b61141d81611407565b82525050565b60006020820190506114386000830184611414565b92915050565b6000604051905090565b600080fd5b600080fd5b61145b81611389565b811461146657600080fd5b50565b60008135905061147881611452565b92915050565b611487816113c5565b811461149257600080fd5b50565b6000813590506114a48161147e565b92915050565b600080fd5b600080fd5b6000601f19601f8301169050919050565b7f4e487b7100000000000000000000000000000000000000000000000000000000600052604160045260246000fd5b6114fd826114b4565b810181811067ffffffffffffffff8211171561151c5761151b6114c5565b5b80604052505050565b600061152f61143e565b905061153b82826114f4565b919050565b600067ffffffffffffffff82111561155b5761155a6114c5565b5b611564826114b4565b9050602081019050919050565b82818337600083830152505050565b600061159361158e84611540565b611525565b9050828152602081018484840111156115af576115ae6114af565b5b6115ba848285611571565b509392505050565b600082601f8301126115d7576115d66114aa565b5b81356115e7848260208601611580565b91505092915050565b6000806000806080858703121561160a57611609611448565b5b600061161887828801611469565b945050602061162987828801611469565b935050604061163a87828801611495565b925050606085013567ffffffffffffffff81111561165b5761165a61144d565b5b611667878288016115c2565b91505092959194509250565b60007fffffffff0000000000000000000000000000000000000000000000000000000082169050919050565b6116a881611673565b82525050565b60006020820190506116c3600083018461169f565b92915050565b60006020820190506116de60008301846113cf565b92915050565b6000602082840312156116fa576116f9611448565b5b600061170884828501611495565b91505092915050565b61171a81611407565b811461172557600080fd5b50565b60008135905061173781611711565b92915050565b6000806040838503121561175457611753611448565b5b600061176285828601611495565b925050602061177385828601611728565b9150509250929050565b60008060006060848603121561179657611795611448565b5b60006117a486828701611728565b93505060206117b586828701611728565b92505060406117c686828701611728565b9150509250925092565b60008115159050919050565b6117e5816117d0565b82525050565b600060208201905061180060008301846117dc565b92915050565b600060a08201905061181b60008301886113cf565b61182860208301876113cf565b6118356040830186611414565b611842606083018561139b565b61184f60808301846117dc565b9695505050505050565b600060608201905061186e60008301866113cf565b61187b60208301856113cf565b61188860408301846113cf565b949350505050565b600082825260208201905092915050565b7f6e6f742066696e69736865640000000000000000000000000000000000000000600082015250565b60006118d7600c83611890565b91506118e2826118a1565b602082019050919050565b60006020820190508181036000830152611906816118ca565b9050919050565b7f6e6f74206a6f696e000000000000000000000000000000000000000000000000600082015250565b6000611943600883611890565b915061194e8261190d565b602082019050919050565b6000602082019050818103600083015261197281611936565b9050919050565b7f4e487b7100000000000000000000000000000000000000000000000000000000600052603260045260246000fd5b7f6e6f74206f776e65720000000000000000000000000000000000000000000000600082015250565b60006119de600983611890565b91506119e9826119a8565b602082019050919050565b60006020820190508181036000830152611a0d816119d1565b9050919050565b7f616c7265616479206c6561766500000000000000000000000000000000000000600082015250565b6000611a4a600d83611890565b9150611a5582611a14565b602082019050919050565b60006020820190508181036000830152611a7981611a3d565b9050919050565b7f4e487b7100000000000000000000000000000000000000000000000000000000600052601160045260246000fd5b6000611aba826113c5565b9150611ac5836113c5565b9250828202611ad3816113c5565b91508282048414831517611aea57611ae9611a80565b5b5092915050565b7f4e487b7100000000000000000000000000000000000000000000000000000000600052601260045260246000fd5b6000611b2b826113c5565b9150611b36836113c5565b925082611b4657611b45611af1565b5b828204905092915050565b600081905092915050565b50565b6000611b6c600083611b51565b9150611b7782611b5c565b600082019050919050565b6000611b8d82611b5f565b9150819050919050565b7f6661696c656420746f2073656e64000000000000000000000000000000000000600082015250565b6000611bcd600e83611890565b9150611bd882611b97565b602082019050919050565b60006020820190508181036000830152611bfc81611bc0565b9050919050565b6000606082019050611c18600083018661139b565b611c25602083018561139b565b611c3260408301846113cf565b949350505050565b600081519050611c4981611452565b92915050565b600060208284031215611c6557611c64611448565b5b6000611c7384828501611c3a565b91505092915050565b7f696e76616c69642066616374696f6e0000000000000000000000000000000000600082015250565b6000611cb2600f83611890565b9150611cbd82611c7c565b602082019050919050565b60006020820190508181036000830152611ce181611ca5565b9050919050565b7f616c7265616479206a6f696e0000000000000000000000000000000000000000600082015250565b6000611d1e600c83611890565b9150611d2982611ce8565b602082019050919050565b60006020820190508181036000830152611d4d81611d11565b9050919050565b600081519050611d638161147e565b92915050565b600081519050611d7881611711565b92915050565b60008060008060008060c08789031215611d9b57611d9a611448565b5b6000611da989828a01611d54565b9650506020611dba89828a01611d54565b9550506040611dcb89828a01611d69565b9450506060611ddc89828a01611d69565b9350506080611ded89828a01611d69565b92505060a0611dfe89828a01611d69565b9150509295509295509295565b6000611e1682611407565b9150611e2183611407565b9250828203905060ff811115611e3a57611e39611a80565b5b92915050565b6000611e4b82611407565b9150611e5683611407565b9250828202611e6481611407565b9150808214611e7657611e75611a80565b5b5092915050565b6000611e8882611407565b9150611e9383611407565b9250828201905060ff811115611eac57611eab611a80565b5b92915050565b6000611ebd826113c5565b9150611ec8836113c5565b9250828201905080821115611ee057611edf611a80565b5b92915050565b7f6163636573732064656e69656400000000000000000000000000000000000000600082015250565b6000611f1c600d83611890565b9150611f2782611ee6565b602082019050919050565b60006020820190508181036000830152611f4b81611f0f565b9050919050565b6000611f5d826113c5565b9150611f68836113c5565b925082611f7857611f77611af1565b5b828206905092915050565b6000611f8e82611407565b915060ff8203611fa157611fa0611a80565b5b600182019050919050565b6000611fb7826113c5565b91507fffffffffffffffffffffffffffffffffffffffffffffffffffffffffffffffff8203611fe957611fe8611a80565b5b600182019050919050565b6000819050919050565b61200f61200a826113c5565b611ff4565b82525050565b60008160601b9050919050565b600061202d82612015565b9050919050565b600061203f82612022565b9050919050565b61205761205282611389565b612034565b82525050565b60006120698289611ffe565b6020820191506120798288611ffe565b6020820191506120898287611ffe565b6020820191506120998286612046565b6014820191506120a98285611ffe565b6020820191506120b98284612046565b60148201915081905097965050505050505056fea2646970667358221220739bb38ecce45f2f187906c8b924dd69b6196e928d6b27aed9dbb8e3ffb1cff564736f6c63430008110033",
  "immutableReferences": {},
  "source": "// SPDX-License-Identifier: MIT\npragma solidity ^0.8.4;\n\nimport \"@openzeppelin/contracts/token/ERC721/IERC721Receiver.sol\";\nimport \"@openzeppelin/contracts/token/ERC721/IERC721.sol\";\nimport \"./IWarrior.sol\";\nimport \"./Utils.sol\";\n\ncontract Battle is IERC721Receiver, Utils {\n    address public creator;\n    address public warriorAddress;\n\n    struct FactionData {\n        uint256 warPoints;\n        uint256 totalStake;\n        uint256 participant;\n    }\n\n    FactionData[] public factionList;\n\n    uint256 public totalWarPoints;\n    uint256 public prize;\n\n    uint8 public winner;\n    uint256 public winningNumber;\n\n    bool public finished;\n\n    struct WarriorData {\n        uint256 nftId;\n        uint256 warPoints;\n        uint8 faction;\n        address owner;\n        bool leave;\n    }\n\n    WarriorData[] public warriorList;\n\n    mapping(uint256 => uint256) nftId2index;\n\n    uint8 public enemyAttack;\n    uint8 public enemyDefense;\n    uint8 public enemyMagic;\n\n    constructor(address warriorAddr) {\n        creator = msg.sender;\n        warriorAddress = warriorAddr;\n\n        factionList.push(FactionData(0, 0, 0));\n        factionList.push(FactionData(0, 0, 0));\n        factionList.push(FactionData(0, 0, 0));\n        totalWarPoints = 0;\n\n        warriorList.push(WarriorData(0, 0, 0, address(0), false));\n    }\n\n    function stat() public view returns (uint256, uint256) {\n        return (factionList.length, warriorList.length);\n    }\n\n    function start(\n        uint8 enemyAtk,\n        uint8 enemyDef,\n        uint8 enemyMgc\n    ) public payable {\n        require(msg.sender == creator, \"access denied\");\n        prize = msg.value;\n        enemyAttack = enemyAtk;\n        enemyDefense = enemyDef;\n        enemyMagic = enemyMgc;\n    }\n\n    function join(uint256 nftId, uint8 faction) public {\n        address ownerNFT = IERC721(warriorAddress).ownerOf(nftId);\n        require(ownerNFT == msg.sender, \"not owner\");\n        require(faction < factionList.length, \"invalid faction\");\n        require(nftId2index[nftId] == 0, \"already join\");\n\n        IERC721(warriorAddress).safeTransferFrom(\n            msg.sender,\n            address(this),\n            nftId\n        );\n\n        (\n            ,\n            //uint256 genetic,\n            uint256 power,\n            uint8 attack,\n            uint8 defense,\n            uint8 magic,\n            uint8 luck\n        ) = IWarrior(warriorAddress).warriorStat(nftId);\n\n        uint256 multiplier1 = 100 + ((luck - 1) * 25);\n        uint256 multiplier2 = power / 100e18;\n        uint256 wp = 1;\n\n        if (attack > enemyDefense) wp += (attack - enemyDefense);\n        if (defense > enemyAttack) wp += (defense - enemyAttack);\n        if (magic > enemyMagic) wp += (magic - enemyMagic);\n\n        wp = wp * multiplier1;\n        wp = wp * multiplier2;\n\n        totalWarPoints = totalWarPoints + wp;\n\n        // struct WarriorData {\n        //     uint256 warPoints;\n        //     uint8 faction;\n        //     address owner;\n        //     bool claimed;\n        // }\n\n        nftId2index[nftId] = warriorList.length;\n        warriorList.push(WarriorData(nftId, wp, faction, msg.sender, false));\n\n        factionList[faction].warPoints += wp;\n        factionList[faction].totalStake += power;\n        factionList[faction].participant += 1;\n    }\n\n    function leave(uint256 nftId) public {\n        require(finished, \"not finished\");\n\n        uint256 indexNFT = nftId2index[nftId];\n        require(indexNFT > 0, \"not join\");\n\n        WarriorData memory w = warriorList[indexNFT];\n        require(w.owner == msg.sender, \"not owner\");\n        require(!w.leave, \"already leave\");\n\n        warriorList[indexNFT].leave = true;\n\n        if (w.faction == winner) {\n            // a winner\n            // transfer reward\n            uint256 totWP = factionList[winner].warPoints;\n            uint256 wp = w.warPoints;\n            uint256 prizeForUser = (prize * wp) / totWP;\n            (bool success, ) = msg.sender.call{value: prizeForUser}(\"\");\n            require(success, \"failed to send\");\n        }\n\n        IERC721(warriorAddress).safeTransferFrom(\n            address(this),\n            msg.sender,\n            nftId\n        );\n    }\n\n    function finish() public {\n        require(msg.sender == creator, \"access denied\");\n\n        uint8 numFaction = uint8(factionList.length);\n\n        winningNumber = _generateRandom() % totalWarPoints;\n        uint256 chance;\n        for (uint8 index = 0; index < numFaction; index++) {\n            chance = chance + factionList[index].warPoints;\n            if (winningNumber < chance) {\n                // winner decided!\n                winner = index;\n                break;\n            }\n        }\n\n        finished = true;\n    }\n\n    function onERC721Received(\n        address,\n        address,\n        uint256,\n        bytes memory\n    ) public virtual override returns (bytes4) {\n        return this.onERC721Received.selector;\n    }\n\n    receive() external payable {}\n\n    fallback() external payable {}\n}\n",
  "sourcePath": "/home/aetherium/Projects/Warrior/encodeXharmony/sc/contracts/Battle.sol",
  "compiler": {
    "name": "solc",
    "version": "0.8.17+commit.8df45f5f.Emscripten.clang"
  },
  "schemaVersion": "3.4.10",
  "updatedAt": "2022-10-18T04:54:45.694Z",
  "devdoc": {
    "kind": "dev",
    "methods": {},
    "version": 1
  },
  "userdoc": {
    "kind": "user",
    "methods": {},
    "version": 1
  }
}