{
  "contractName": "StakingPrecompiles",
  "abi": [
    {
      "inputs": [
        {
          "internalType": "address",
          "name": "validatorAddress",
          "type": "address"
        },
        {
          "internalType": "uint256",
          "name": "amount",
          "type": "uint256"
        }
      ],
      "name": "delegate",
      "outputs": [
        {
          "internalType": "uint256",
          "name": "result",
          "type": "uint256"
        }
      ],
      "stateMutability": "nonpayable",
      "type": "function"
    },
    {
      "inputs": [
        {
          "internalType": "address",
          "name": "validatorAddress",
          "type": "address"
        },
        {
          "internalType": "uint256",
          "name": "amount",
          "type": "uint256"
        }
      ],
      "name": "undelegate",
      "outputs": [
        {
          "internalType": "uint256",
          "name": "result",
          "type": "uint256"
        }
      ],
      "stateMutability": "nonpayable",
      "type": "function"
    },
    {
      "inputs": [],
      "name": "collectRewards",
      "outputs": [
        {
          "internalType": "uint256",
          "name": "result",
          "type": "uint256"
        }
      ],
      "stateMutability": "nonpayable",
      "type": "function"
    },
    {
      "inputs": [],
      "name": "epoch",
      "outputs": [
        {
          "internalType": "uint256",
          "name": "",
          "type": "uint256"
        }
      ],
      "stateMutability": "view",
      "type": "function"
    }
  ],
  "bytecode": "0x608060405234801561001057600080fd5b5061047b806100206000396000f3fe608060405234801561001057600080fd5b506004361061004c5760003560e01c8063026e402b146100515780634d99dd161461008157806370bb45b3146100b1578063900cf0cf146100cf575b600080fd5b61006b6004803603810190610066919061037a565b6100ed565b60405161007891906103c9565b60405180910390f35b61009b6004803603810190610096919061037a565b610188565b6040516100a891906103c9565b60405180910390f35b6100b9610223565b6040516100c691906103c9565b60405180910390f35b6100d76102b7565b6040516100e491906103c9565b60405180910390f35b60008063510b11bb60e01b30858560405160240161010d939291906103f3565b604051602081830303815290604052907bffffffffffffffffffffffffffffffffffffffffffffffffffffffff19166020820180517bffffffffffffffffffffffffffffffffffffffffffffffffffffffff838183161783525050505090506020604051825160208401600060fc6161a8f191505092915050565b60008063bda8c0e960e01b3085856040516024016101a8939291906103f3565b604051602081830303815290604052907bffffffffffffffffffffffffffffffffffffffffffffffffffffffff19166020820180517bffffffffffffffffffffffffffffffffffffffffffffffffffffffff838183161783525050505090506020604051825160208401600060fc6161a8f191505092915050565b600080636d6b2f7760e01b3060405160240161023f919061042a565b604051602081830303815290604052907bffffffffffffffffffffffffffffffffffffffffffffffffffffffff19166020820180517bffffffffffffffffffffffffffffffffffffffffffffffffffffffff838183161783525050505090506020604051825160208401600060fc6161a8f191505090565b600080600060405160208160208560fb600019fa6102d157fe5b80519150508060001c9250505090565b600080fd5b600073ffffffffffffffffffffffffffffffffffffffff82169050919050565b6000610311826102e6565b9050919050565b61032181610306565b811461032c57600080fd5b50565b60008135905061033e81610318565b92915050565b6000819050919050565b61035781610344565b811461036257600080fd5b50565b6000813590506103748161034e565b92915050565b60008060408385031215610391576103906102e1565b5b600061039f8582860161032f565b92505060206103b085828601610365565b9150509250929050565b6103c381610344565b82525050565b60006020820190506103de60008301846103ba565b92915050565b6103ed81610306565b82525050565b600060608201905061040860008301866103e4565b61041560208301856103e4565b61042260408301846103ba565b949350505050565b600060208201905061043f60008301846103e4565b9291505056fea2646970667358221220a26bc59ff29a9eebecbc485faf3d5fb8efc6f6f5850a3d1cd23a5ed51470aea664736f6c63430008110033",
  "immutableReferences": {},
  "source": "//SPDX-License-Identifier: Unlicense\npragma solidity ^0.8.0;\n\nenum Directive {\n    CREATE_VALIDATOR, // unused\n    EDIT_VALIDATOR, // unused\n    DELEGATE,\n    UNDELEGATE,\n    COLLECT_REWARDS\n}\n\nabstract contract StakingPrecompilesSelectors {\n    function Delegate(\n        address delegatorAddress,\n        address validatorAddress,\n        uint256 amount\n    ) public virtual;\n\n    function Undelegate(\n        address delegatorAddress,\n        address validatorAddress,\n        uint256 amount\n    ) public virtual;\n\n    function CollectRewards(address delegatorAddress) public virtual;\n\n    function Migrate(address from, address to) public virtual;\n}\n\ncontract StakingPrecompiles {\n    function delegate(address validatorAddress, uint256 amount)\n        public\n        virtual\n        returns (uint256 result)\n    {\n        bytes memory encodedInput = abi.encodeWithSelector(\n            StakingPrecompilesSelectors.Delegate.selector,\n            address(this),\n            validatorAddress,\n            amount\n        );\n        assembly {\n            // we estimate a gas consumption of 25k per precompile\n            result := call(\n                25000,\n                0xfc,\n                0x0,\n                add(encodedInput, 32),\n                mload(encodedInput),\n                mload(0x40),\n                0x20\n            )\n        }\n    }\n\n    function undelegate(address validatorAddress, uint256 amount)\n        public\n        virtual\n        returns (uint256 result)\n    {\n        bytes memory encodedInput = abi.encodeWithSelector(\n            StakingPrecompilesSelectors.Undelegate.selector,\n            address(this),\n            validatorAddress,\n            amount\n        );\n        assembly {\n            // we estimate a gas consumption of 25k per precompile\n            result := call(\n                25000,\n                0xfc,\n                0x0,\n                add(encodedInput, 32),\n                mload(encodedInput),\n                mload(0x40),\n                0x20\n            )\n        }\n    }\n\n    function collectRewards() public virtual returns (uint256 result) {\n        bytes memory encodedInput = abi.encodeWithSelector(\n            StakingPrecompilesSelectors.CollectRewards.selector,\n            address(this)\n        );\n        assembly {\n            // we estimate a gas consumption of 25k per precompile\n            result := call(\n                25000,\n                0xfc,\n                0x0,\n                add(encodedInput, 32),\n                mload(encodedInput),\n                mload(0x40),\n                0x20\n            )\n        }\n    }\n\n    function epoch() public view returns (uint256) {\n        bytes32 input;\n        bytes32 epochNumber;\n        assembly {\n            let memPtr := mload(0x40)\n            if iszero(staticcall(not(0), 0xfb, input, 32, memPtr, 32)) {\n                invalid()\n            }\n            epochNumber := mload(memPtr)\n        }\n        return uint256(epochNumber);\n    }\n}\n",
  "sourcePath": "/home/aetherium/Projects/Warrior/encodeXharmony/sc/contracts/StakingPrecompiles.sol",
  "compiler": {
    "name": "solc",
    "version": "0.8.17+commit.8df45f5f.Emscripten.clang"
  },
  "schemaVersion": "3.4.10",
  "updatedAt": "2022-10-18T04:54:45.721Z",
  "devdoc": {
    "kind": "dev",
    "methods": {},
    "version": 1
  },
  "userdoc": {
    "kind": "user",
    "methods": {},
    "version": 1
  }
}