{
  "contractName": "Warrior",
  "abi": [
    {
      "inputs": [],
      "stateMutability": "nonpayable",
      "type": "constructor"
    },
    {
      "anonymous": false,
      "inputs": [
        {
          "indexed": true,
          "internalType": "address",
          "name": "owner",
          "type": "address"
        },
        {
          "indexed": true,
          "internalType": "address",
          "name": "approved",
          "type": "address"
        },
        {
          "indexed": true,
          "internalType": "uint256",
          "name": "tokenId",
          "type": "uint256"
        }
      ],
      "name": "Approval",
      "type": "event"
    },
    {
      "anonymous": false,
      "inputs": [
        {
          "indexed": true,
          "internalType": "address",
          "name": "owner",
          "type": "address"
        },
        {
          "indexed": true,
          "internalType": "address",
          "name": "operator",
          "type": "address"
        },
        {
          "indexed": false,
          "internalType": "bool",
          "name": "approved",
          "type": "bool"
        }
      ],
      "name": "ApprovalForAll",
      "type": "event"
    },
    {
      "anonymous": false,
      "inputs": [
        {
          "indexed": true,
          "internalType": "address",
          "name": "from",
          "type": "address"
        },
        {
          "indexed": true,
          "internalType": "address",
          "name": "to",
          "type": "address"
        },
        {
          "indexed": true,
          "internalType": "uint256",
          "name": "tokenId",
          "type": "uint256"
        }
      ],
      "name": "Transfer",
      "type": "event"
    },
    {
      "stateMutability": "payable",
      "type": "fallback",
      "payable": true
    },
    {
      "inputs": [
        {
          "internalType": "address",
          "name": "to",
          "type": "address"
        },
        {
          "internalType": "uint256",
          "name": "tokenId",
          "type": "uint256"
        }
      ],
      "name": "approve",
      "outputs": [],
      "stateMutability": "nonpayable",
      "type": "function"
    },
    {
      "inputs": [
        {
          "internalType": "address",
          "name": "owner",
          "type": "address"
        }
      ],
      "name": "balanceOf",
      "outputs": [
        {
          "internalType": "uint256",
          "name": "",
          "type": "uint256"
        }
      ],
      "stateMutability": "view",
      "type": "function",
      "constant": true
    },
    {
      "inputs": [],
      "name": "baseURL",
      "outputs": [
        {
          "internalType": "string",
          "name": "",
          "type": "string"
        }
      ],
      "stateMutability": "view",
      "type": "function",
      "constant": true
    },
    {
      "inputs": [],
      "name": "creator",
      "outputs": [
        {
          "internalType": "address",
          "name": "",
          "type": "address"
        }
      ],
      "stateMutability": "view",
      "type": "function",
      "constant": true
    },
    {
      "inputs": [],
      "name": "epoch",
      "outputs": [
        {
          "internalType": "uint256",
          "name": "",
          "type": "uint256"
        }
      ],
      "stateMutability": "view",
      "type": "function",
      "constant": true
    },
    {
      "inputs": [
        {
          "internalType": "uint256",
          "name": "tokenId",
          "type": "uint256"
        }
      ],
      "name": "getApproved",
      "outputs": [
        {
          "internalType": "address",
          "name": "",
          "type": "address"
        }
      ],
      "stateMutability": "view",
      "type": "function",
      "constant": true
    },
    {
      "inputs": [
        {
          "internalType": "address",
          "name": "owner",
          "type": "address"
        },
        {
          "internalType": "address",
          "name": "operator",
          "type": "address"
        }
      ],
      "name": "isApprovedForAll",
      "outputs": [
        {
          "internalType": "bool",
          "name": "",
          "type": "bool"
        }
      ],
      "stateMutability": "view",
      "type": "function",
      "constant": true
    },
    {
      "inputs": [],
      "name": "kingdomAddress",
      "outputs": [
        {
          "internalType": "address",
          "name": "",
          "type": "address"
        }
      ],
      "stateMutability": "view",
      "type": "function",
      "constant": true
    },
    {
      "inputs": [],
      "name": "name",
      "outputs": [
        {
          "internalType": "string",
          "name": "",
          "type": "string"
        }
      ],
      "stateMutability": "view",
      "type": "function",
      "constant": true
    },
    {
      "inputs": [
        {
          "internalType": "uint256",
          "name": "tokenId",
          "type": "uint256"
        }
      ],
      "name": "ownerOf",
      "outputs": [
        {
          "internalType": "address",
          "name": "",
          "type": "address"
        }
      ],
      "stateMutability": "view",
      "type": "function",
      "constant": true
    },
    {
      "inputs": [
        {
          "internalType": "uint256",
          "name": "",
          "type": "uint256"
        }
      ],
      "name": "pendingList",
      "outputs": [
        {
          "internalType": "address",
          "name": "receiver",
          "type": "address"
        },
        {
          "internalType": "uint256",
          "name": "amount",
          "type": "uint256"
        },
        {
          "internalType": "uint256",
          "name": "claimTime",
          "type": "uint256"
        },
        {
          "internalType": "bool",
          "name": "claimed",
          "type": "bool"
        }
      ],
      "stateMutability": "view",
      "type": "function",
      "constant": true
    },
    {
      "inputs": [
        {
          "internalType": "address",
          "name": "from",
          "type": "address"
        },
        {
          "internalType": "address",
          "name": "to",
          "type": "address"
        },
        {
          "internalType": "uint256",
          "name": "tokenId",
          "type": "uint256"
        }
      ],
      "name": "safeTransferFrom",
      "outputs": [],
      "stateMutability": "nonpayable",
      "type": "function"
    },
    {
      "inputs": [
        {
          "internalType": "address",
          "name": "from",
          "type": "address"
        },
        {
          "internalType": "address",
          "name": "to",
          "type": "address"
        },
        {
          "internalType": "uint256",
          "name": "tokenId",
          "type": "uint256"
        },
        {
          "internalType": "bytes",
          "name": "data",
          "type": "bytes"
        }
      ],
      "name": "safeTransferFrom",
      "outputs": [],
      "stateMutability": "nonpayable",
      "type": "function"
    },
    {
      "inputs": [
        {
          "internalType": "address",
          "name": "operator",
          "type": "address"
        },
        {
          "internalType": "bool",
          "name": "approved",
          "type": "bool"
        }
      ],
      "name": "setApprovalForAll",
      "outputs": [],
      "stateMutability": "nonpayable",
      "type": "function"
    },
    {
      "inputs": [],
      "name": "stakeAddress",
      "outputs": [
        {
          "internalType": "address",
          "name": "",
          "type": "address"
        }
      ],
      "stateMutability": "view",
      "type": "function",
      "constant": true
    },
    {
      "inputs": [
        {
          "internalType": "uint256",
          "name": "",
          "type": "uint256"
        }
      ],
      "name": "statList",
      "outputs": [
        {
          "internalType": "uint256",
          "name": "genetic",
          "type": "uint256"
        },
        {
          "internalType": "uint256",
          "name": "power",
          "type": "uint256"
        },
        {
          "internalType": "uint8",
          "name": "attack",
          "type": "uint8"
        },
        {
          "internalType": "uint8",
          "name": "defense",
          "type": "uint8"
        },
        {
          "internalType": "uint8",
          "name": "magic",
          "type": "uint8"
        },
        {
          "internalType": "uint8",
          "name": "luck",
          "type": "uint8"
        }
      ],
      "stateMutability": "view",
      "type": "function",
      "constant": true
    },
    {
      "inputs": [
        {
          "internalType": "bytes4",
          "name": "interfaceId",
          "type": "bytes4"
        }
      ],
      "name": "supportsInterface",
      "outputs": [
        {
          "internalType": "bool",
          "name": "",
          "type": "bool"
        }
      ],
      "stateMutability": "view",
      "type": "function",
      "constant": true
    },
    {
      "inputs": [],
      "name": "symbol",
      "outputs": [
        {
          "internalType": "string",
          "name": "",
          "type": "string"
        }
      ],
      "stateMutability": "view",
      "type": "function",
      "constant": true
    },
    {
      "inputs": [
        {
          "internalType": "uint256",
          "name": "index",
          "type": "uint256"
        }
      ],
      "name": "tokenByIndex",
      "outputs": [
        {
          "internalType": "uint256",
          "name": "",
          "type": "uint256"
        }
      ],
      "stateMutability": "view",
      "type": "function",
      "constant": true
    },
    {
      "inputs": [
        {
          "internalType": "address",
          "name": "owner",
          "type": "address"
        },
        {
          "internalType": "uint256",
          "name": "index",
          "type": "uint256"
        }
      ],
      "name": "tokenOfOwnerByIndex",
      "outputs": [
        {
          "internalType": "uint256",
          "name": "",
          "type": "uint256"
        }
      ],
      "stateMutability": "view",
      "type": "function",
      "constant": true
    },
    {
      "inputs": [],
      "name": "totalStake",
      "outputs": [
        {
          "internalType": "uint256",
          "name": "",
          "type": "uint256"
        }
      ],
      "stateMutability": "view",
      "type": "function",
      "constant": true
    },
    {
      "inputs": [],
      "name": "totalSupply",
      "outputs": [
        {
          "internalType": "uint256",
          "name": "",
          "type": "uint256"
        }
      ],
      "stateMutability": "view",
      "type": "function",
      "constant": true
    },
    {
      "inputs": [
        {
          "internalType": "address",
          "name": "from",
          "type": "address"
        },
        {
          "internalType": "address",
          "name": "to",
          "type": "address"
        },
        {
          "internalType": "uint256",
          "name": "tokenId",
          "type": "uint256"
        }
      ],
      "name": "transferFrom",
      "outputs": [],
      "stateMutability": "nonpayable",
      "type": "function"
    },
    {
      "stateMutability": "payable",
      "type": "receive",
      "payable": true
    },
    {
      "inputs": [],
      "name": "buildVersion",
      "outputs": [
        {
          "internalType": "uint256",
          "name": "",
          "type": "uint256"
        }
      ],
      "stateMutability": "pure",
      "type": "function",
      "constant": true
    },
    {
      "inputs": [
        {
          "internalType": "string",
          "name": "url",
          "type": "string"
        },
        {
          "internalType": "address",
          "name": "kingdomAddr",
          "type": "address"
        }
      ],
      "name": "setup",
      "outputs": [],
      "stateMutability": "nonpayable",
      "type": "function"
    },
    {
      "inputs": [],
      "name": "stat",
      "outputs": [
        {
          "internalType": "uint256",
          "name": "",
          "type": "uint256"
        },
        {
          "internalType": "uint256",
          "name": "",
          "type": "uint256"
        }
      ],
      "stateMutability": "view",
      "type": "function",
      "constant": true
    },
    {
      "inputs": [
        {
          "internalType": "uint256",
          "name": "nftId",
          "type": "uint256"
        }
      ],
      "name": "warriorStat",
      "outputs": [
        {
          "internalType": "uint256",
          "name": "",
          "type": "uint256"
        },
        {
          "internalType": "uint256",
          "name": "",
          "type": "uint256"
        },
        {
          "internalType": "uint8",
          "name": "",
          "type": "uint8"
        },
        {
          "internalType": "uint8",
          "name": "",
          "type": "uint8"
        },
        {
          "internalType": "uint8",
          "name": "",
          "type": "uint8"
        },
        {
          "internalType": "uint8",
          "name": "",
          "type": "uint8"
        }
      ],
      "stateMutability": "view",
      "type": "function",
      "constant": true
    },
    {
      "inputs": [
        {
          "internalType": "uint256",
          "name": "power",
          "type": "uint256"
        },
        {
          "internalType": "uint8",
          "name": "atkVal",
          "type": "uint8"
        },
        {
          "internalType": "uint8",
          "name": "defVal",
          "type": "uint8"
        },
        {
          "internalType": "uint8",
          "name": "mgcVal",
          "type": "uint8"
        }
      ],
      "name": "summon",
      "outputs": [],
      "stateMutability": "payable",
      "type": "function",
      "payable": true
    },
    {
      "inputs": [
        {
          "internalType": "uint256",
          "name": "nftId",
          "type": "uint256"
        }
      ],
      "name": "unsummon",
      "outputs": [],
      "stateMutability": "nonpayable",
      "type": "function"
    },
    {
      "inputs": [
        {
          "internalType": "uint256",
          "name": "index",
          "type": "uint256"
        }
      ],
      "name": "claimPendingWithdraw",
      "outputs": [],
      "stateMutability": "nonpayable",
      "type": "function"
    },
    {
      "inputs": [],
      "name": "retrieveYield",
      "outputs": [],
      "stateMutability": "nonpayable",
      "type": "function"
    },
    {
      "inputs": [
        {
          "internalType": "uint256",
          "name": "nftId",
          "type": "uint256"
        }
      ],
      "name": "tokenURI",
      "outputs": [
        {
          "internalType": "string",
          "name": "",
          "type": "string"
        }
      ],
      "stateMutability": "view",
      "type": "function",
      "constant": true
    },
    {
      "inputs": [
        {
          "internalType": "address",
          "name": "validatorAddress",
          "type": "address"
        },
        {
          "internalType": "uint256",
          "name": "amount",
          "type": "uint256"
        }
      ],
      "name": "delegate",
      "outputs": [
        {
          "internalType": "uint256",
          "name": "",
          "type": "uint256"
        }
      ],
      "stateMutability": "nonpayable",
      "type": "function"
    },
    {
      "inputs": [
        {
          "internalType": "address",
          "name": "validatorAddress",
          "type": "address"
        },
        {
          "internalType": "uint256",
          "name": "amount",
          "type": "uint256"
        }
      ],
      "name": "undelegate",
      "outputs": [
        {
          "internalType": "uint256",
          "name": "result",
          "type": "uint256"
        }
      ],
      "stateMutability": "nonpayable",
      "type": "function"
    },
    {
      "inputs": [],
      "name": "collectRewards",
      "outputs": [
        {
          "internalType": "uint256",
          "name": "",
          "type": "uint256"
        }
      ],
      "stateMutability": "nonpayable",
      "type": "function"
    }
  ],
  "bytecode": "0x60806040523480156200001157600080fd5b506040518060400160405280601481526020017f5969656c642057617272696f72204e46542076330000000000000000000000008152506040518060400160405280600381526020017f574152000000000000000000000000000000000000000000000000000000000081525081600090816200008f9190620004be565b508060019081620000a19190620004be565b5050507329c2ec57803f8b695f02613e5fa1749c165c5057600d60006101000a81548173ffffffffffffffffffffffffffffffffffffffff021916908373ffffffffffffffffffffffffffffffffffffffff16021790555033600c60006101000a81548173ffffffffffffffffffffffffffffffffffffffff021916908373ffffffffffffffffffffffffffffffffffffffff160217905550600b6040518060c001604052806000815260200160008152602001600060ff168152602001600060ff168152602001600060ff168152602001600060ff168152509080600181540180825580915050600190039060005260206000209060030201600090919091909150600082015181600001556020820151816001015560408201518160020160006101000a81548160ff021916908360ff16021790555060608201518160020160016101000a81548160ff021916908360ff16021790555060808201518160020160026101000a81548160ff021916908360ff16021790555060a08201518160020160036101000a81548160ff021916908360ff1602179055505050620005a5565b600081519050919050565b7f4e487b7100000000000000000000000000000000000000000000000000000000600052604160045260246000fd5b7f4e487b7100000000000000000000000000000000000000000000000000000000600052602260045260246000fd5b60006002820490506001821680620002c657607f821691505b602082108103620002dc57620002db6200027e565b5b50919050565b60008190508160005260206000209050919050565b60006020601f8301049050919050565b600082821b905092915050565b600060088302620003467fffffffffffffffffffffffffffffffffffffffffffffffffffffffffffffffff8262000307565b62000352868362000307565b95508019841693508086168417925050509392505050565b6000819050919050565b6000819050919050565b60006200039f6200039962000393846200036a565b62000374565b6200036a565b9050919050565b6000819050919050565b620003bb836200037e565b620003d3620003ca82620003a6565b84845462000314565b825550505050565b600090565b620003ea620003db565b620003f7818484620003b0565b505050565b5b818110156200041f5762000413600082620003e0565b600181019050620003fd565b5050565b601f8211156200046e576200043881620002e2565b6200044384620002f7565b8101602085101562000453578190505b6200046b6200046285620002f7565b830182620003fc565b50505b505050565b600082821c905092915050565b6000620004936000198460080262000473565b1980831691505092915050565b6000620004ae838362000480565b9150826002028217905092915050565b620004c98262000244565b67ffffffffffffffff811115620004e557620004e46200024f565b5b620004f18254620002ad565b620004fe82828562000423565b600060209050601f83116001811462000536576000841562000521578287015190505b6200052d8582620004a0565b8655506200059d565b601f1984166200054686620002e2565b60005b82811015620005705784890151825560018201915060208501945060208101905062000549565b868310156200059057848901516200058c601f89168262000480565b8355505b6001600288020188555050505b505050505050565b6152da80620005b56000396000f3fe6080604052600436106102085760003560e01c80634d99dd16116101185780638b0e9f3f116100a0578063ae34ebb01161006f578063ae34ebb0146107d4578063b88d4fde146107fd578063c87b56dd14610826578063e985e9c514610863578063f033da71146108a05761020f565b80638b0e9f3f1461072a578063900cf0cf1461075557806395d89b4114610780578063a22cb465146107ab5761020f565b80636b856787116100e75780636b8567871461065257806370a082311461067b57806370bb45b3146106b857806385107367146106e357806387428c3b1461070e5761020f565b80634d99dd16146105725780634f6ccce7146105af578063528863bb146105ec5780636352211e146106155761020f565b806318160ddd1161019b5780632e9851001161016a5780632e9851001461048b5780632f745c59146104b65780633792c688146104f357806340c84b0e1461051e57806342842e0e146105495761020f565b806318160ddd146103b35780631a7e0345146103de57806323b872dd146104205780632e519592146104495761020f565b80630435a745116101d75780630435a745146102f657806306fdde0314610322578063081812fc1461034d578063095ea7b31461038a5761020f565b806301ffc9a714610211578063026e402b1461024e57806302d05d3f1461028b57806303aca792146102b65761020f565b3661020f57005b005b34801561021d57600080fd5b5061023860048036038101906102339190613714565b6108b7565b604051610245919061375c565b60405180910390f35b34801561025a57600080fd5b506102756004803603810190610270919061380b565b610931565b604051610282919061385a565b60405180910390f35b34801561029757600080fd5b506102a0610987565b6040516102ad9190613884565b60405180910390f35b3480156102c257600080fd5b506102dd60048036038101906102d8919061389f565b6109ad565b6040516102ed94939291906138cc565b60405180910390f35b34801561030257600080fd5b5061030b610a1a565b604051610319929190613911565b60405180910390f35b34801561032e57600080fd5b50610337610a31565b60405161034491906139ca565b60405180910390f35b34801561035957600080fd5b50610374600480360381019061036f919061389f565b610ac3565b6040516103819190613884565b60405180910390f35b34801561039657600080fd5b506103b160048036038101906103ac919061380b565b610b09565b005b3480156103bf57600080fd5b506103c8610c20565b6040516103d5919061385a565b60405180910390f35b3480156103ea57600080fd5b506104056004803603810190610400919061389f565b610c2d565b60405161041796959493929190613a08565b60405180910390f35b34801561042c57600080fd5b5061044760048036038101906104429190613a69565b610cad565b005b34801561045557600080fd5b50610470600480360381019061046b919061389f565b610d0d565b60405161048296959493929190613a08565b60405180910390f35b34801561049757600080fd5b506104a0610e67565b6040516104ad919061385a565b60405180910390f35b3480156104c257600080fd5b506104dd60048036038101906104d8919061380b565b610e70565b6040516104ea919061385a565b60405180910390f35b3480156104ff57600080fd5b50610508610f15565b6040516105159190613884565b60405180910390f35b34801561052a57600080fd5b50610533610f3b565b60405161054091906139ca565b60405180910390f35b34801561055557600080fd5b50610570600480360381019061056b9190613a69565b610fc9565b005b34801561057e57600080fd5b506105996004803603810190610594919061380b565b610fe9565b6040516105a6919061385a565b60405180910390f35b3480156105bb57600080fd5b506105d660048036038101906105d1919061389f565b61103f565b6040516105e3919061385a565b60405180910390f35b3480156105f857600080fd5b50610613600480360381019061060e919061389f565b6110b0565b005b34801561062157600080fd5b5061063c6004803603810190610637919061389f565b611375565b6040516106499190613884565b60405180910390f35b34801561065e57600080fd5b506106796004803603810190610674919061389f565b611426565b005b34801561068757600080fd5b506106a2600480360381019061069d9190613abc565b611636565b6040516106af919061385a565b60405180910390f35b3480156106c457600080fd5b506106cd6116ed565b6040516106da919061385a565b60405180910390f35b3480156106ef57600080fd5b506106f861173e565b6040516107059190613884565b60405180910390f35b61072860048036038101906107239190613b15565b611764565b005b34801561073657600080fd5b5061073f611a58565b60405161074c919061385a565b60405180910390f35b34801561076157600080fd5b5061076a611a5e565b604051610777919061385a565b60405180910390f35b34801561078c57600080fd5b50610795611a88565b6040516107a291906139ca565b60405180910390f35b3480156107b757600080fd5b506107d260048036038101906107cd9190613ba8565b611b1a565b005b3480156107e057600080fd5b506107fb60048036038101906107f69190613d1d565b611b30565b005b34801561080957600080fd5b50610824600480360381019061081f9190613e1a565b611c15565b005b34801561083257600080fd5b5061084d6004803603810190610848919061389f565b611c77565b60405161085a91906139ca565b60405180910390f35b34801561086f57600080fd5b5061088a60048036038101906108859190613e9d565b611d70565b604051610897919061375c565b60405180910390f35b3480156108ac57600080fd5b506108b5611e04565b005b60007f780e9d63000000000000000000000000000000000000000000000000000000007bffffffffffffffffffffffffffffffffffffffffffffffffffffffff1916827bffffffffffffffffffffffffffffffffffffffffffffffffffffffff1916148061092a575061092982611fd5565b5b9050919050565b6000600115610975576040517f08c379a000000000000000000000000000000000000000000000000000000000815260040161096c90613f29565b60405180910390fd5b61097f83836120b7565b905092915050565b600c60009054906101000a900473ffffffffffffffffffffffffffffffffffffffff1681565b601181815481106109bd57600080fd5b90600052602060002090600402016000915090508060000160009054906101000a900473ffffffffffffffffffffffffffffffffffffffff16908060010154908060020154908060030160009054906101000a900460ff16905084565b600080600b80549050601180549050915091509091565b606060008054610a4090613f78565b80601f0160208091040260200160405190810160405280929190818152602001828054610a6c90613f78565b8015610ab95780601f10610a8e57610100808354040283529160200191610ab9565b820191906000526020600020905b815481529060010190602001808311610a9c57829003601f168201915b5050505050905090565b6000610ace82612152565b6004600083815260200190815260200160002060009054906101000a900473ffffffffffffffffffffffffffffffffffffffff169050919050565b6000610b1482611375565b90508073ffffffffffffffffffffffffffffffffffffffff168373ffffffffffffffffffffffffffffffffffffffff1603610b84576040517f08c379a0000000000000000000000000000000000000000000000000000000008152600401610b7b9061401b565b60405180910390fd5b8073ffffffffffffffffffffffffffffffffffffffff16610ba361219d565b73ffffffffffffffffffffffffffffffffffffffff161480610bd25750610bd181610bcc61219d565b611d70565b5b610c11576040517f08c379a0000000000000000000000000000000000000000000000000000000008152600401610c08906140ad565b60405180910390fd5b610c1b83836121a5565b505050565b6000600880549050905090565b600b8181548110610c3d57600080fd5b90600052602060002090600302016000915090508060000154908060010154908060020160009054906101000a900460ff16908060020160019054906101000a900460ff16908060020160029054906101000a900460ff16908060020160039054906101000a900460ff16905086565b610cbe610cb861219d565b8261225e565b610cfd576040517f08c379a0000000000000000000000000000000000000000000000000000000008152600401610cf49061413f565b60405180910390fd5b610d088383836122f3565b505050565b6000806000806000806000600b8881548110610d2c57610d2b61415f565b5b90600052602060002090600302016000015490506000600b8981548110610d5657610d5561415f565b5b90600052602060002090600302016001015490506000600b8a81548110610d8057610d7f61415f565b5b906000526020600020906003020160020160009054906101000a900460ff1690506000600b8b81548110610db757610db661415f565b5b906000526020600020906003020160020160019054906101000a900460ff1690506000600b8c81548110610dee57610ded61415f565b5b906000526020600020906003020160020160029054906101000a900460ff1690506000600b8d81548110610e2557610e2461415f565b5b906000526020600020906003020160020160039054906101000a900460ff1690508585858585859b509b509b509b509b509b5050505050505091939550919395565b60006001905090565b6000610e7b83611636565b8210610ebc576040517f08c379a0000000000000000000000000000000000000000000000000000000008152600401610eb390614200565b60405180910390fd5b600660008473ffffffffffffffffffffffffffffffffffffffff1673ffffffffffffffffffffffffffffffffffffffff168152602001908152602001600020600083815260200190815260200160002054905092915050565b600e60009054906101000a900473ffffffffffffffffffffffffffffffffffffffff1681565b60108054610f4890613f78565b80601f0160208091040260200160405190810160405280929190818152602001828054610f7490613f78565b8015610fc15780601f10610f9657610100808354040283529160200191610fc1565b820191906000526020600020905b815481529060010190602001808311610fa457829003601f168201915b505050505081565b610fe483838360405180602001604052806000815250611c15565b505050565b600060011561102d576040517f08c379a000000000000000000000000000000000000000000000000000000000815260040161102490613f29565b60405180910390fd5b6110378383612559565b905092915050565b6000611049610c20565b821061108a576040517f08c379a000000000000000000000000000000000000000000000000000000000815260040161108190614292565b60405180910390fd5b6008828154811061109e5761109d61415f565b5b90600052602060002001549050919050565b6000601182815481106110c6576110c561415f565b5b906000526020600020906004020160000160009054906101000a900473ffffffffffffffffffffffffffffffffffffffff1690503373ffffffffffffffffffffffffffffffffffffffff168173ffffffffffffffffffffffffffffffffffffffff1614611168576040517f08c379a000000000000000000000000000000000000000000000000000000000815260040161115f906142fe565b60405180910390fd5b60006011838154811061117e5761117d61415f565b5b906000526020600020906004020160030160009054906101000a900460ff16905080156111e0576040517f08c379a00000000000000000000000000000000000000000000000000000000081526004016111d79061436a565b60405180910390fd5b60006111ea611a5e565b90506000601185815481106112025761120161415f565b5b9060005260206000209060040201600201549050808211611258576040517f08c379a000000000000000000000000000000000000000000000000000000000815260040161124f906143d6565b60405180910390fd5b60016011868154811061126e5761126d61415f565b5b906000526020600020906004020160030160006101000a81548160ff0219169083151502179055506000601186815481106112ac576112ab61415f565b5b906000526020600020906004020160010154905060003373ffffffffffffffffffffffffffffffffffffffff16826040516112e690614427565b60006040518083038185875af1925050503d8060008114611323576040519150601f19603f3d011682016040523d82523d6000602084013e611328565b606091505b505090508061136c576040517f08c379a000000000000000000000000000000000000000000000000000000000815260040161136390614488565b60405180910390fd5b50505050505050565b6000806002600084815260200190815260200160002060009054906101000a900473ffffffffffffffffffffffffffffffffffffffff169050600073ffffffffffffffffffffffffffffffffffffffff168173ffffffffffffffffffffffffffffffffffffffff160361141d576040517f08c379a0000000000000000000000000000000000000000000000000000000008152600401611414906144f4565b60405180910390fd5b80915050919050565b600061143182611375565b90503373ffffffffffffffffffffffffffffffffffffffff168173ffffffffffffffffffffffffffffffffffffffff16146114a1576040517f08c379a0000000000000000000000000000000000000000000000000000000008152600401611498906142fe565b60405180910390fd5b6000600b83815481106114b7576114b661415f565b5b906000526020600020906003020160010154905060006114d6826125f4565b905080611518576040517f08c379a000000000000000000000000000000000000000000000000000000000815260040161150f90614560565b60405180910390fd5b60006001611524611a5e565b61152e91906145af565b905082600f5461153e91906145e3565b600f81905550601160405180608001604052808673ffffffffffffffffffffffffffffffffffffffff16815260200185815260200183815260200160001515815250908060018154018082558091505060019003906000526020600020906004020160009091909190915060008201518160000160006101000a81548173ffffffffffffffffffffffffffffffffffffffff021916908373ffffffffffffffffffffffffffffffffffffffff160217905550602082015181600101556040820151816002015560608201518160030160006101000a81548160ff021916908315150217905550505061162f85612637565b5050505050565b60008073ffffffffffffffffffffffffffffffffffffffff168273ffffffffffffffffffffffffffffffffffffffff16036116a6576040517f08c379a000000000000000000000000000000000000000000000000000000000815260040161169d90614689565b60405180910390fd5b600360008373ffffffffffffffffffffffffffffffffffffffff1673ffffffffffffffffffffffffffffffffffffffff168152602001908152602001600020549050919050565b6000600115611731576040517f08c379a000000000000000000000000000000000000000000000000000000000815260040161172890613f29565b60405180910390fd5b611739612754565b905090565b600d60009054906101000a900473ffffffffffffffffffffffffffffffffffffffff1681565b600068056bc75e2d63100000808661177c91906146d8565b6117869190614709565b905068056bc75e2d631000008110156117d4576040517f08c379a00000000000000000000000000000000000000000000000000000000081526004016117cb90614797565b60405180910390fd5b80851480156117e257508034145b611821576040517f08c379a000000000000000000000000000000000000000000000000000000000815260040161181890614803565b60405180910390fd5b60008284866118309190614823565b61183a9190614823565b905060098160ff16148015611853575060058560ff1611155b8015611863575060058460ff1611155b8015611873575060058360ff1611155b6118b2576040517f08c379a00000000000000000000000000000000000000000000000000000000081526004016118a9906148a4565b60405180910390fd5b6118bb826127e8565b5081600f546118ca91906145af565b600f8190555060006118da61282b565b905060006064826118eb91906148c4565b90506000600190506001821015611905576005905061193a565b60088210156119175760049050611939565b60158210156119295760039050611938565b602882101561193757600290505b5b5b5b6000600b805490509050600b6040518060c001604052808681526020018c81526020018b60ff1681526020018a60ff1681526020018960ff1681526020018460ff168152509080600181540180825580915050600190039060005260206000209060030201600090919091909150600082015181600001556020820151816001015560408201518160020160006101000a81548160ff021916908360ff16021790555060608201518160020160016101000a81548160ff021916908360ff16021790555060808201518160020160026101000a81548160ff021916908360ff16021790555060a08201518160020160036101000a81548160ff021916908360ff1602179055505050611a4c3382612893565b50505050505050505050565b600f5481565b600080600060405160208160208560fb600019fa611a7857fe5b80519150508060001c9250505090565b606060018054611a9790613f78565b80601f0160208091040260200160405190810160405280929190818152602001828054611ac390613f78565b8015611b105780601f10611ae557610100808354040283529160200191611b10565b820191906000526020600020905b815481529060010190602001808311611af357829003601f168201915b5050505050905090565b611b2c611b2561219d565b8383612a6c565b5050565b600c60009054906101000a900473ffffffffffffffffffffffffffffffffffffffff1673ffffffffffffffffffffffffffffffffffffffff163373ffffffffffffffffffffffffffffffffffffffff1614611bc0576040517f08c379a0000000000000000000000000000000000000000000000000000000008152600401611bb790614941565b60405180910390fd5b8160109081611bcf9190614b0d565b5080600e60006101000a81548173ffffffffffffffffffffffffffffffffffffffff021916908373ffffffffffffffffffffffffffffffffffffffff1602179055505050565b611c26611c2061219d565b8361225e565b611c65576040517f08c379a0000000000000000000000000000000000000000000000000000000008152600401611c5c9061413f565b60405180910390fd5b611c7184848484612bd8565b50505050565b60606000611c8483612c34565b9050600060108054611c9590613f78565b80601f0160208091040260200160405190810160405280929190818152602001828054611cc190613f78565b8015611d0e5780601f10611ce357610100808354040283529160200191611d0e565b820191906000526020600020905b815481529060010190602001808311611cf157829003601f168201915b505050505090506000815103611d28578192505050611d6b565b600082511115611d5d578082604051602001611d45929190614c1b565b60405160208183030381529060405292505050611d6b565b611d6684612d9a565b925050505b919050565b6000600560008473ffffffffffffffffffffffffffffffffffffffff1673ffffffffffffffffffffffffffffffffffffffff16815260200190815260200160002060008373ffffffffffffffffffffffffffffffffffffffff1673ffffffffffffffffffffffffffffffffffffffff16815260200190815260200160002060009054906101000a900460ff16905092915050565b600e60009054906101000a900473ffffffffffffffffffffffffffffffffffffffff1673ffffffffffffffffffffffffffffffffffffffff163373ffffffffffffffffffffffffffffffffffffffff1614611e94576040517f08c379a0000000000000000000000000000000000000000000000000000000008152600401611e8b90614c8b565b60405180910390fd5b60004790506000611ea3612e02565b905080611ee5576040517f08c379a0000000000000000000000000000000000000000000000000000000008152600401611edc90614cf7565b60405180910390fd5b600047905060008382611ef891906145e3565b90506000600e60009054906101000a900473ffffffffffffffffffffffffffffffffffffffff16905060008173ffffffffffffffffffffffffffffffffffffffff1683604051611f4790614427565b60006040518083038185875af1925050503d8060008114611f84576040519150601f19603f3d011682016040523d82523d6000602084013e611f89565b606091505b5050905080611fcd576040517f08c379a0000000000000000000000000000000000000000000000000000000008152600401611fc490614488565b60405180910390fd5b505050505050565b60007f80ac58cd000000000000000000000000000000000000000000000000000000007bffffffffffffffffffffffffffffffffffffffffffffffffffffffff1916827bffffffffffffffffffffffffffffffffffffffffffffffffffffffff191614806120a057507f5b5e139f000000000000000000000000000000000000000000000000000000007bffffffffffffffffffffffffffffffffffffffffffffffffffffffff1916827bffffffffffffffffffffffffffffffffffffffffffffffffffffffff1916145b806120b057506120af82612e1f565b5b9050919050565b60008063510b11bb60e01b3085856040516024016120d793929190614d17565b604051602081830303815290604052907bffffffffffffffffffffffffffffffffffffffffffffffffffffffff19166020820180517bffffffffffffffffffffffffffffffffffffffffffffffffffffffff838183161783525050505090506020604051825160208401600060fc6161a8f191505092915050565b61215b81612e89565b61219a576040517f08c379a0000000000000000000000000000000000000000000000000000000008152600401612191906144f4565b60405180910390fd5b50565b600033905090565b816004600083815260200190815260200160002060006101000a81548173ffffffffffffffffffffffffffffffffffffffff021916908373ffffffffffffffffffffffffffffffffffffffff160217905550808273ffffffffffffffffffffffffffffffffffffffff1661221883611375565b73ffffffffffffffffffffffffffffffffffffffff167f8c5be1e5ebec7d5bd14f71427d1e84f3dd0314c0f7b2291e5b200ac8c7c3b92560405160405180910390a45050565b60008061226a83611375565b90508073ffffffffffffffffffffffffffffffffffffffff168473ffffffffffffffffffffffffffffffffffffffff1614806122ac57506122ab8185611d70565b5b806122ea57508373ffffffffffffffffffffffffffffffffffffffff166122d284610ac3565b73ffffffffffffffffffffffffffffffffffffffff16145b91505092915050565b8273ffffffffffffffffffffffffffffffffffffffff1661231382611375565b73ffffffffffffffffffffffffffffffffffffffff1614612369576040517f08c379a000000000000000000000000000000000000000000000000000000000815260040161236090614dc0565b60405180910390fd5b600073ffffffffffffffffffffffffffffffffffffffff168273ffffffffffffffffffffffffffffffffffffffff16036123d8576040517f08c379a00000000000000000000000000000000000000000000000000000000081526004016123cf90614e52565b60405180910390fd5b6123e3838383612ef5565b6123ee6000826121a5565b6001600360008573ffffffffffffffffffffffffffffffffffffffff1673ffffffffffffffffffffffffffffffffffffffff168152602001908152602001600020600082825461243e91906145e3565b925050819055506001600360008473ffffffffffffffffffffffffffffffffffffffff1673ffffffffffffffffffffffffffffffffffffffff168152602001908152602001600020600082825461249591906145af565b92505081905550816002600083815260200190815260200160002060006101000a81548173ffffffffffffffffffffffffffffffffffffffff021916908373ffffffffffffffffffffffffffffffffffffffff160217905550808273ffffffffffffffffffffffffffffffffffffffff168473ffffffffffffffffffffffffffffffffffffffff167fddf252ad1be2c89b69c2b068fc378daa952ba7f163c4a11628f55a4df523b3ef60405160405180910390a4612554838383613007565b505050565b60008063bda8c0e960e01b30858560405160240161257993929190614d17565b604051602081830303815290604052907bffffffffffffffffffffffffffffffffffffffffffffffffffffffff19166020820180517bffffffffffffffffffffffffffffffffffffffffffffffffffffffff838183161783525050505090506020604051825160208401600060fc6161a8f191505092915050565b600080612623600d60009054906101000a900473ffffffffffffffffffffffffffffffffffffffff1684612559565b905060008082141590508092505050919050565b600061264282611375565b905061265081600084612ef5565b61265b6000836121a5565b6001600360008373ffffffffffffffffffffffffffffffffffffffff1673ffffffffffffffffffffffffffffffffffffffff16815260200190815260200160002060008282546126ab91906145e3565b925050819055506002600083815260200190815260200160002060006101000a81549073ffffffffffffffffffffffffffffffffffffffff021916905581600073ffffffffffffffffffffffffffffffffffffffff168273ffffffffffffffffffffffffffffffffffffffff167fddf252ad1be2c89b69c2b068fc378daa952ba7f163c4a11628f55a4df523b3ef60405160405180910390a461275081600084613007565b5050565b600080636d6b2f7760e01b306040516024016127709190613884565b604051602081830303815290604052907bffffffffffffffffffffffffffffffffffffffffffffffffffffffff19166020820180517bffffffffffffffffffffffffffffffffffffffffffffffffffffffff838183161783525050505090506020604051825160208401600060fc6161a8f191505090565b600080612817600d60009054906101000a900473ffffffffffffffffffffffffffffffffffffffff16846120b7565b905060008082141590508092505050919050565b6000600a600081548092919061284090614e72565b9190505550600061284f61300c565b905060008142600a5433443260405160200161287096959493929190614f23565b6040516020818303038152906040528051906020012060001c9050809250505090565b600073ffffffffffffffffffffffffffffffffffffffff168273ffffffffffffffffffffffffffffffffffffffff1603612902576040517f08c379a00000000000000000000000000000000000000000000000000000000081526004016128f990614fdf565b60405180910390fd5b61290b81612e89565b1561294b576040517f08c379a00000000000000000000000000000000000000000000000000000000081526004016129429061504b565b60405180910390fd5b61295760008383612ef5565b6001600360008473ffffffffffffffffffffffffffffffffffffffff1673ffffffffffffffffffffffffffffffffffffffff16815260200190815260200160002060008282546129a791906145af565b92505081905550816002600083815260200190815260200160002060006101000a81548173ffffffffffffffffffffffffffffffffffffffff021916908373ffffffffffffffffffffffffffffffffffffffff160217905550808273ffffffffffffffffffffffffffffffffffffffff16600073ffffffffffffffffffffffffffffffffffffffff167fddf252ad1be2c89b69c2b068fc378daa952ba7f163c4a11628f55a4df523b3ef60405160405180910390a4612a6860008383613007565b5050565b8173ffffffffffffffffffffffffffffffffffffffff168373ffffffffffffffffffffffffffffffffffffffff1603612ada576040517f08c379a0000000000000000000000000000000000000000000000000000000008152600401612ad1906150b7565b60405180910390fd5b80600560008573ffffffffffffffffffffffffffffffffffffffff1673ffffffffffffffffffffffffffffffffffffffff16815260200190815260200160002060008473ffffffffffffffffffffffffffffffffffffffff1673ffffffffffffffffffffffffffffffffffffffff16815260200190815260200160002060006101000a81548160ff0219169083151502179055508173ffffffffffffffffffffffffffffffffffffffff168373ffffffffffffffffffffffffffffffffffffffff167f17307eab39ab6107e8899845ad3d59bd9653f200f220920489ca2b5937696c3183604051612bcb919061375c565b60405180910390a3505050565b612be38484846122f3565b612bef8484848461305a565b612c2e576040517f08c379a0000000000000000000000000000000000000000000000000000000008152600401612c2590615149565b60405180910390fd5b50505050565b606060008203612c7b576040518060400160405280600181526020017f30000000000000000000000000000000000000000000000000000000000000008152509050612d95565b600082905060005b60008214612cad578080612c9690614e72565b915050600a82612ca691906146d8565b9150612c83565b60008167ffffffffffffffff811115612cc957612cc8613bf2565b5b6040519080825280601f01601f191660200182016040528015612cfb5781602001600182028036833780820191505090505b50905060008290508593505b60008414612d8d57600a84612d1c91906148c4565b6030612d2891906145af565b60f81b8282612d3690615169565b92508281518110612d4a57612d4961415f565b5b60200101907effffffffffffffffffffffffffffffffffffffffffffffffffffffffffffff1916908160001a905350600a84612d8691906146d8565b9350612d07565b819450505050505b919050565b6060612da582612152565b6000612daf6131e1565b90506000815111612dcf5760405180602001604052806000815250612dfa565b80612dd9846131f8565b604051602001612dea929190614c1b565b6040516020818303038152906040525b915050919050565b600080612e0d612754565b90506000808214159050809250505090565b60007f01ffc9a7000000000000000000000000000000000000000000000000000000007bffffffffffffffffffffffffffffffffffffffffffffffffffffffff1916827bffffffffffffffffffffffffffffffffffffffffffffffffffffffff1916149050919050565b60008073ffffffffffffffffffffffffffffffffffffffff166002600084815260200190815260200160002060009054906101000a900473ffffffffffffffffffffffffffffffffffffffff1673ffffffffffffffffffffffffffffffffffffffff1614159050919050565b612f00838383613358565b600073ffffffffffffffffffffffffffffffffffffffff168373ffffffffffffffffffffffffffffffffffffffff1603612f4257612f3d8161335d565b612f81565b8173ffffffffffffffffffffffffffffffffffffffff168373ffffffffffffffffffffffffffffffffffffffff1614612f8057612f7f83826133a6565b5b5b600073ffffffffffffffffffffffffffffffffffffffff168273ffffffffffffffffffffffffffffffffffffffff1603612fc357612fbe81613513565b613002565b8273ffffffffffffffffffffffffffffffffffffffff168273ffffffffffffffffffffffffffffffffffffffff16146130015761300082826135e4565b5b5b505050565b505050565b600080613017613686565b438160006001811061302c5761302b61415f565b5b60200201818152505060405160208160208460ff600019fa61304a57fe5b80519250508160001c9250505090565b600061307b8473ffffffffffffffffffffffffffffffffffffffff16613663565b156131d4578373ffffffffffffffffffffffffffffffffffffffff1663150b7a026130a461219d565b8786866040518563ffffffff1660e01b81526004016130c694939291906151e7565b6020604051808303816000875af192505050801561310257506040513d601f19601f820116820180604052508101906130ff9190615248565b60015b613184573d8060008114613132576040519150601f19603f3d011682016040523d82523d6000602084013e613137565b606091505b50600081510361317c576040517f08c379a000000000000000000000000000000000000000000000000000000000815260040161317390615149565b60405180910390fd5b805181602001fd5b63150b7a0260e01b7bffffffffffffffffffffffffffffffffffffffffffffffffffffffff1916817bffffffffffffffffffffffffffffffffffffffffffffffffffffffff1916149150506131d9565b600190505b949350505050565b606060405180602001604052806000815250905090565b60606000820361323f576040518060400160405280600181526020017f30000000000000000000000000000000000000000000000000000000000000008152509050613353565b600082905060005b6000821461327157808061325a90614e72565b915050600a8261326a91906146d8565b9150613247565b60008167ffffffffffffffff81111561328d5761328c613bf2565b5b6040519080825280601f01601f1916602001820160405280156132bf5781602001600182028036833780820191505090505b5090505b6000851461334c576001826132d891906145e3565b9150600a856132e791906148c4565b60306132f391906145af565b60f81b8183815181106133095761330861415f565b5b60200101907effffffffffffffffffffffffffffffffffffffffffffffffffffffffffffff1916908160001a905350600a8561334591906146d8565b94506132c3565b8093505050505b919050565b505050565b6008805490506009600083815260200190815260200160002081905550600881908060018154018082558091505060019003906000526020600020016000909190919091505550565b600060016133b384611636565b6133bd91906145e3565b90506000600760008481526020019081526020016000205490508181146134a2576000600660008673ffffffffffffffffffffffffffffffffffffffff1673ffffffffffffffffffffffffffffffffffffffff168152602001908152602001600020600084815260200190815260200160002054905080600660008773ffffffffffffffffffffffffffffffffffffffff1673ffffffffffffffffffffffffffffffffffffffff168152602001908152602001600020600084815260200190815260200160002081905550816007600083815260200190815260200160002081905550505b6007600084815260200190815260200160002060009055600660008573ffffffffffffffffffffffffffffffffffffffff1673ffffffffffffffffffffffffffffffffffffffff16815260200190815260200160002060008381526020019081526020016000206000905550505050565b6000600160088054905061352791906145e3565b90506000600960008481526020019081526020016000205490506000600883815481106135575761355661415f565b5b9060005260206000200154905080600883815481106135795761357861415f565b5b9060005260206000200181905550816009600083815260200190815260200160002081905550600960008581526020019081526020016000206000905560088054806135c8576135c7615275565b5b6001900381819060005260206000200160009055905550505050565b60006135ef83611636565b905081600660008573ffffffffffffffffffffffffffffffffffffffff1673ffffffffffffffffffffffffffffffffffffffff168152602001908152602001600020600083815260200190815260200160002081905550806007600084815260200190815260200160002081905550505050565b6000808273ffffffffffffffffffffffffffffffffffffffff163b119050919050565b6040518060200160405280600190602082028036833780820191505090505090565b6000604051905090565b600080fd5b600080fd5b60007fffffffff0000000000000000000000000000000000000000000000000000000082169050919050565b6136f1816136bc565b81146136fc57600080fd5b50565b60008135905061370e816136e8565b92915050565b60006020828403121561372a576137296136b2565b5b6000613738848285016136ff565b91505092915050565b60008115159050919050565b61375681613741565b82525050565b6000602082019050613771600083018461374d565b92915050565b600073ffffffffffffffffffffffffffffffffffffffff82169050919050565b60006137a282613777565b9050919050565b6137b281613797565b81146137bd57600080fd5b50565b6000813590506137cf816137a9565b92915050565b6000819050919050565b6137e8816137d5565b81146137f357600080fd5b50565b600081359050613805816137df565b92915050565b60008060408385031215613822576138216136b2565b5b6000613830858286016137c0565b9250506020613841858286016137f6565b9150509250929050565b613854816137d5565b82525050565b600060208201905061386f600083018461384b565b92915050565b61387e81613797565b82525050565b60006020820190506138996000830184613875565b92915050565b6000602082840312156138b5576138b46136b2565b5b60006138c3848285016137f6565b91505092915050565b60006080820190506138e16000830187613875565b6138ee602083018661384b565b6138fb604083018561384b565b613908606083018461374d565b95945050505050565b6000604082019050613926600083018561384b565b613933602083018461384b565b9392505050565b600081519050919050565b600082825260208201905092915050565b60005b83811015613974578082015181840152602081019050613959565b60008484015250505050565b6000601f19601f8301169050919050565b600061399c8261393a565b6139a68185613945565b93506139b6818560208601613956565b6139bf81613980565b840191505092915050565b600060208201905081810360008301526139e48184613991565b905092915050565b600060ff82169050919050565b613a02816139ec565b82525050565b600060c082019050613a1d600083018961384b565b613a2a602083018861384b565b613a3760408301876139f9565b613a4460608301866139f9565b613a5160808301856139f9565b613a5e60a08301846139f9565b979650505050505050565b600080600060608486031215613a8257613a816136b2565b5b6000613a90868287016137c0565b9350506020613aa1868287016137c0565b9250506040613ab2868287016137f6565b9150509250925092565b600060208284031215613ad257613ad16136b2565b5b6000613ae0848285016137c0565b91505092915050565b613af2816139ec565b8114613afd57600080fd5b50565b600081359050613b0f81613ae9565b92915050565b60008060008060808587031215613b2f57613b2e6136b2565b5b6000613b3d878288016137f6565b9450506020613b4e87828801613b00565b9350506040613b5f87828801613b00565b9250506060613b7087828801613b00565b91505092959194509250565b613b8581613741565b8114613b9057600080fd5b50565b600081359050613ba281613b7c565b92915050565b60008060408385031215613bbf57613bbe6136b2565b5b6000613bcd858286016137c0565b9250506020613bde85828601613b93565b9150509250929050565b600080fd5b600080fd5b7f4e487b7100000000000000000000000000000000000000000000000000000000600052604160045260246000fd5b613c2a82613980565b810181811067ffffffffffffffff82111715613c4957613c48613bf2565b5b80604052505050565b6000613c5c6136a8565b9050613c688282613c21565b919050565b600067ffffffffffffffff821115613c8857613c87613bf2565b5b613c9182613980565b9050602081019050919050565b82818337600083830152505050565b6000613cc0613cbb84613c6d565b613c52565b905082815260208101848484011115613cdc57613cdb613bed565b5b613ce7848285613c9e565b509392505050565b600082601f830112613d0457613d03613be8565b5b8135613d14848260208601613cad565b91505092915050565b60008060408385031215613d3457613d336136b2565b5b600083013567ffffffffffffffff811115613d5257613d516136b7565b5b613d5e85828601613cef565b9250506020613d6f858286016137c0565b9150509250929050565b600067ffffffffffffffff821115613d9457613d93613bf2565b5b613d9d82613980565b9050602081019050919050565b6000613dbd613db884613d79565b613c52565b905082815260208101848484011115613dd957613dd8613bed565b5b613de4848285613c9e565b509392505050565b600082601f830112613e0157613e00613be8565b5b8135613e11848260208601613daa565b91505092915050565b60008060008060808587031215613e3457613e336136b2565b5b6000613e42878288016137c0565b9450506020613e53878288016137c0565b9350506040613e64878288016137f6565b925050606085013567ffffffffffffffff811115613e8557613e846136b7565b5b613e9187828801613dec565b91505092959194509250565b60008060408385031215613eb457613eb36136b2565b5b6000613ec2858286016137c0565b9250506020613ed3858286016137c0565b9150509250929050565b7f636c6f7365640000000000000000000000000000000000000000000000000000600082015250565b6000613f13600683613945565b9150613f1e82613edd565b602082019050919050565b60006020820190508181036000830152613f4281613f06565b9050919050565b7f4e487b7100000000000000000000000000000000000000000000000000000000600052602260045260246000fd5b60006002820490506001821680613f9057607f821691505b602082108103613fa357613fa2613f49565b5b50919050565b7f4552433732313a20617070726f76616c20746f2063757272656e74206f776e6560008201527f7200000000000000000000000000000000000000000000000000000000000000602082015250565b6000614005602183613945565b915061401082613fa9565b604082019050919050565b6000602082019050818103600083015261403481613ff8565b9050919050565b7f4552433732313a20617070726f76652063616c6c6572206973206e6f7420746f60008201527f6b656e206f776e6572206e6f7220617070726f76656420666f7220616c6c0000602082015250565b6000614097603e83613945565b91506140a28261403b565b604082019050919050565b600060208201905081810360008301526140c68161408a565b9050919050565b7f4552433732313a2063616c6c6572206973206e6f7420746f6b656e206f776e6560008201527f72206e6f7220617070726f766564000000000000000000000000000000000000602082015250565b6000614129602e83613945565b9150614134826140cd565b604082019050919050565b600060208201905081810360008301526141588161411c565b9050919050565b7f4e487b7100000000000000000000000000000000000000000000000000000000600052603260045260246000fd5b7f455243373231456e756d657261626c653a206f776e657220696e646578206f7560008201527f74206f6620626f756e6473000000000000000000000000000000000000000000602082015250565b60006141ea602b83613945565b91506141f58261418e565b604082019050919050565b60006020820190508181036000830152614219816141dd565b9050919050565b7f455243373231456e756d657261626c653a20676c6f62616c20696e646578206f60008201527f7574206f6620626f756e64730000000000000000000000000000000000000000602082015250565b600061427c602c83613945565b915061428782614220565b604082019050919050565b600060208201905081810360008301526142ab8161426f565b9050919050565b7f6e6f74206f776e65720000000000000000000000000000000000000000000000600082015250565b60006142e8600983613945565b91506142f3826142b2565b602082019050919050565b60006020820190508181036000830152614317816142db565b9050919050565b7f616c726561647920636c61696d65640000000000000000000000000000000000600082015250565b6000614354600f83613945565b915061435f8261431e565b602082019050919050565b6000602082019050818103600083015261438381614347565b9050919050565b7f6e6f742074696d6520746f20636c61696d000000000000000000000000000000600082015250565b60006143c0601183613945565b91506143cb8261438a565b602082019050919050565b600060208201905081810360008301526143ef816143b3565b9050919050565b600081905092915050565b50565b60006144116000836143f6565b915061441c82614401565b600082019050919050565b600061443282614404565b9150819050919050565b7f6661696c656420746f2073656e64000000000000000000000000000000000000600082015250565b6000614472600e83613945565b915061447d8261443c565b602082019050919050565b600060208201905081810360008301526144a181614465565b9050919050565b7f4552433732313a20696e76616c696420746f6b656e2049440000000000000000600082015250565b60006144de601883613945565b91506144e9826144a8565b602082019050919050565b6000602082019050818103600083015261450d816144d1565b9050919050565b7f7769746864726177206661696c00000000000000000000000000000000000000600082015250565b600061454a600d83613945565b915061455582614514565b602082019050919050565b600060208201905081810360008301526145798161453d565b9050919050565b7f4e487b7100000000000000000000000000000000000000000000000000000000600052601160045260246000fd5b60006145ba826137d5565b91506145c5836137d5565b92508282019050808211156145dd576145dc614580565b5b92915050565b60006145ee826137d5565b91506145f9836137d5565b925082820390508181111561461157614610614580565b5b92915050565b7f4552433732313a2061646472657373207a65726f206973206e6f74206120766160008201527f6c6964206f776e65720000000000000000000000000000000000000000000000602082015250565b6000614673602983613945565b915061467e82614617565b604082019050919050565b600060208201905081810360008301526146a281614666565b9050919050565b7f4e487b7100000000000000000000000000000000000000000000000000000000600052601260045260246000fd5b60006146e3826137d5565b91506146ee836137d5565b9250826146fe576146fd6146a9565b5b828204905092915050565b6000614714826137d5565b915061471f836137d5565b925082820261472d816137d5565b9150828204841483151761474457614743614580565b5b5092915050565b7f6e6f7420656e6f75676820706f77657200000000000000000000000000000000600082015250565b6000614781601083613945565b915061478c8261474b565b602082019050919050565b600060208201905081810360008301526147b081614774565b9050919050565b7f696e76616c696420706f77657200000000000000000000000000000000000000600082015250565b60006147ed600d83613945565b91506147f8826147b7565b602082019050919050565b6000602082019050818103600083015261481c816147e0565b9050919050565b600061482e826139ec565b9150614839836139ec565b9250828201905060ff81111561485257614851614580565b5b92915050565b7f646f6e7420636865617400000000000000000000000000000000000000000000600082015250565b600061488e600a83613945565b915061489982614858565b602082019050919050565b600060208201905081810360008301526148bd81614881565b9050919050565b60006148cf826137d5565b91506148da836137d5565b9250826148ea576148e96146a9565b5b828206905092915050565b7f6f6e6c792063726561746f722063616e20736574757000000000000000000000600082015250565b600061492b601683613945565b9150614936826148f5565b602082019050919050565b6000602082019050818103600083015261495a8161491e565b9050919050565b60008190508160005260206000209050919050565b60006020601f8301049050919050565b600082821b905092915050565b6000600883026149c37fffffffffffffffffffffffffffffffffffffffffffffffffffffffffffffffff82614986565b6149cd8683614986565b95508019841693508086168417925050509392505050565b6000819050919050565b6000614a0a614a05614a00846137d5565b6149e5565b6137d5565b9050919050565b6000819050919050565b614a24836149ef565b614a38614a3082614a11565b848454614993565b825550505050565b600090565b614a4d614a40565b614a58818484614a1b565b505050565b5b81811015614a7c57614a71600082614a45565b600181019050614a5e565b5050565b601f821115614ac157614a9281614961565b614a9b84614976565b81016020851015614aaa578190505b614abe614ab685614976565b830182614a5d565b50505b505050565b600082821c905092915050565b6000614ae460001984600802614ac6565b1980831691505092915050565b6000614afd8383614ad3565b9150826002028217905092915050565b614b168261393a565b67ffffffffffffffff811115614b2f57614b2e613bf2565b5b614b398254613f78565b614b44828285614a80565b600060209050601f831160018114614b775760008415614b65578287015190505b614b6f8582614af1565b865550614bd7565b601f198416614b8586614961565b60005b82811015614bad57848901518255600182019150602085019450602081019050614b88565b86831015614bca5784890151614bc6601f891682614ad3565b8355505b6001600288020188555050505b505050505050565b600081905092915050565b6000614bf58261393a565b614bff8185614bdf565b9350614c0f818560208601613956565b80840191505092915050565b6000614c278285614bea565b9150614c338284614bea565b91508190509392505050565b7f6f6e6c79206b696e67646f6d20636f6e74726163742063616e2063616c6c0000600082015250565b6000614c75601e83613945565b9150614c8082614c3f565b602082019050919050565b60006020820190508181036000830152614ca481614c68565b9050919050565b7f636c61696d206e6f742073756363657373000000000000000000000000000000600082015250565b6000614ce1601183613945565b9150614cec82614cab565b602082019050919050565b60006020820190508181036000830152614d1081614cd4565b9050919050565b6000606082019050614d2c6000830186613875565b614d396020830185613875565b614d46604083018461384b565b949350505050565b7f4552433732313a207472616e736665722066726f6d20696e636f72726563742060008201527f6f776e6572000000000000000000000000000000000000000000000000000000602082015250565b6000614daa602583613945565b9150614db582614d4e565b604082019050919050565b60006020820190508181036000830152614dd981614d9d565b9050919050565b7f4552433732313a207472616e7366657220746f20746865207a65726f2061646460008201527f7265737300000000000000000000000000000000000000000000000000000000602082015250565b6000614e3c602483613945565b9150614e4782614de0565b604082019050919050565b60006020820190508181036000830152614e6b81614e2f565b9050919050565b6000614e7d826137d5565b91507fffffffffffffffffffffffffffffffffffffffffffffffffffffffffffffffff8203614eaf57614eae614580565b5b600182019050919050565b6000819050919050565b614ed5614ed0826137d5565b614eba565b82525050565b60008160601b9050919050565b6000614ef382614edb565b9050919050565b6000614f0582614ee8565b9050919050565b614f1d614f1882613797565b614efa565b82525050565b6000614f2f8289614ec4565b602082019150614f3f8288614ec4565b602082019150614f4f8287614ec4565b602082019150614f5f8286614f0c565b601482019150614f6f8285614ec4565b602082019150614f7f8284614f0c565b601482019150819050979650505050505050565b7f4552433732313a206d696e7420746f20746865207a65726f2061646472657373600082015250565b6000614fc9602083613945565b9150614fd482614f93565b602082019050919050565b60006020820190508181036000830152614ff881614fbc565b9050919050565b7f4552433732313a20746f6b656e20616c7265616479206d696e74656400000000600082015250565b6000615035601c83613945565b915061504082614fff565b602082019050919050565b6000602082019050818103600083015261506481615028565b9050919050565b7f4552433732313a20617070726f766520746f2063616c6c657200000000000000600082015250565b60006150a1601983613945565b91506150ac8261506b565b602082019050919050565b600060208201905081810360008301526150d081615094565b9050919050565b7f4552433732313a207472616e7366657220746f206e6f6e20455243373231526560008201527f63656976657220696d706c656d656e7465720000000000000000000000000000602082015250565b6000615133603283613945565b915061513e826150d7565b604082019050919050565b6000602082019050818103600083015261516281615126565b9050919050565b6000615174826137d5565b91506000820361518757615186614580565b5b600182039050919050565b600081519050919050565b600082825260208201905092915050565b60006151b982615192565b6151c3818561519d565b93506151d3818560208601613956565b6151dc81613980565b840191505092915050565b60006080820190506151fc6000830187613875565b6152096020830186613875565b615216604083018561384b565b818103606083015261522881846151ae565b905095945050505050565b600081519050615242816136e8565b92915050565b60006020828403121561525e5761525d6136b2565b5b600061526c84828501615233565b91505092915050565b7f4e487b7100000000000000000000000000000000000000000000000000000000600052603160045260246000fdfea2646970667358221220974834684fad748ff8cf43fa4c989e4380f76ea67d209bdfb358cd536e9b818364736f6c63430008110033",
  "immutableReferences": {},
  "source": "// SPDX-License-Identifier: MIT\npragma solidity ^0.8.4;\n\nimport \"@openzeppelin/contracts/token/ERC721/extensions/ERC721Enumerable.sol\";\nimport \"./StakingPrecompiles.sol\";\nimport \"./Utils.sol\";\n\ncontract Warrior is ERC721Enumerable, StakingPrecompiles, Utils {\n    struct Stat {\n        uint256 genetic;\n        uint256 power;\n        uint8 attack;\n        uint8 defense;\n        uint8 magic;\n        uint8 luck;\n    }\n\n    Stat[] public statList;\n\n    address public creator;\n    address public stakeAddress;\n    address public kingdomAddress;\n    uint256 public totalStake;\n    string public baseURL;\n\n    struct PendingWithdraw {\n        address receiver;\n        uint256 amount;\n        uint256 claimTime;\n        bool claimed;\n    }\n\n    PendingWithdraw[] public pendingList;\n\n    constructor() ERC721(\"Yield Warrior NFT v3\", \"WAR\") {\n        // https://staking.harmony.one/validators/testnet/one198pwc4uq879kjhczvyl9lgt5nst9c5zhwhfrvz\n        // MaxMustermann2 validator address\n        stakeAddress = 0x29c2eC57803f8b695f02613E5FA1749c165c5057;\n        creator = msg.sender;\n        statList.push(Stat(0, 0, 0, 0, 0, 0));\n    }\n\n    function buildVersion() public pure returns (uint256) {\n        return (1);\n    }\n\n    function setup(string memory url, address kingdomAddr) public {\n        require(msg.sender == creator, \"only creator can setup\");\n        baseURL = url;\n        kingdomAddress = kingdomAddr;\n    }\n\n    function stat() public view returns (uint256, uint256) {\n        return (statList.length, pendingList.length);\n    }\n\n    function warriorStat(uint256 nftId)\n        public\n        view\n        returns (\n            uint256,\n            uint256,\n            uint8,\n            uint8,\n            uint8,\n            uint8\n        )\n    {\n        uint256 genetic = statList[nftId].genetic;\n        uint256 power = statList[nftId].power;\n        uint8 attack = statList[nftId].attack;\n        uint8 defense = statList[nftId].defense;\n        uint8 magic = statList[nftId].magic;\n        uint8 luck = statList[nftId].luck;\n        return (genetic, power, attack, defense, magic, luck);\n    }\n\n    function summon(\n        uint256 power,\n        uint8 atkVal,\n        uint8 defVal,\n        uint8 mgcVal\n    ) public payable {\n        uint256 num = (power / 100e18) * 100e18;\n        require(num >= 100e18, \"not enough power\");\n        require(power == num && msg.value == num, \"invalid power\");\n\n        uint8 totVal = atkVal + defVal + mgcVal;\n        require(\n            (totVal == 9) && (atkVal <= 5) && (defVal <= 5) && (mgcVal <= 5),\n            \"dont cheat\"\n        );\n\n        _deposit(num);\n\n        totalStake = totalStake + num;\n        uint256 genetic = _generateRandom();\n        uint256 chance = genetic % 100;\n\n        uint8 luck = 1;\n\n        if (chance < 1) {\n            luck = 5;\n        } else if (chance < 1 + 7) {\n            luck = 4;\n        } else if (chance < 1 + 7 + 13) {\n            luck = 3;\n        } else if (chance < 1 + 7 + 13 + 19) {\n            luck = 2;\n        }\n\n        // uint256 genetic;\n        // uint256 power;\n        // uint8 attack;\n        // uint8 defense;\n        // uint8 magic;\n        // uint8 luck;\n\n        uint256 nftId = statList.length;\n        statList.push(Stat(genetic, power, atkVal, defVal, mgcVal, luck));\n\n        _mint(msg.sender, nftId);\n    }\n\n    function unsummon(uint256 nftId) public {\n        address ownerNFT = ownerOf(nftId);\n        require(ownerNFT == msg.sender, \"not owner\");\n\n        uint256 amount = statList[nftId].power;\n        bool successWithdraw = _withdraw(amount);\n        require(successWithdraw, \"withdraw fail\");\n\n        uint256 claimTime = epoch() + 1;\n\n        totalStake = totalStake - amount;\n        pendingList.push(PendingWithdraw(ownerNFT, amount, claimTime, false));\n\n        _burn(nftId);\n    }\n\n    function claimPendingWithdraw(uint256 index) public {\n        address receiver = pendingList[index].receiver;\n        require(receiver == msg.sender, \"not owner\");\n\n        bool claimed = pendingList[index].claimed;\n        require(!claimed, \"already claimed\");\n\n        uint256 curTime = epoch();\n        uint256 claimTime = pendingList[index].claimTime;\n        require(curTime > claimTime, \"not time to claim\");\n\n        pendingList[index].claimed = true;\n\n        uint256 amount = pendingList[index].amount;\n        (bool success, ) = msg.sender.call{value: amount}(\"\");\n        require(success, \"failed to send\");\n    }\n\n    function retrieveYield() public {\n        require(msg.sender == kingdomAddress, \"only kingdom contract can call\");\n\n        uint256 balanceBefore = address(this).balance;\n        bool successClaim = _claim();\n        require(successClaim, \"claim not success\");\n\n        uint256 balanceAfter = address(this).balance;\n        uint256 yieldVal = balanceAfter - balanceBefore;\n\n        address payable receiver = payable(kingdomAddress);\n        (bool success, ) = receiver.call{value: yieldVal}(\"\");\n        require(success, \"failed to send\");\n    }\n\n    function tokenURI(uint256 nftId)\n        public\n        view\n        virtual\n        override\n        returns (string memory)\n    {\n        string memory tokenId = _uint2str(nftId);\n        string memory base = baseURL;\n\n        // If there is no base URI, return the token URI.\n        if (bytes(base).length == 0) {\n            return tokenId;\n        }\n\n        // If both are set, concatenate the baseURI and tokenURI (via abi.encodePacked).\n        if (bytes(tokenId).length > 0) {\n            return string(abi.encodePacked(base, tokenId));\n        }\n\n        return super.tokenURI(nftId);\n    }\n\n    function _deposit(uint256 amount) private returns (bool) {\n        // https://github.com/MaxMustermann2/harmony-staking-precompiles/blob/main/contracts/example/StakingContract.sol\n        uint256 result = StakingPrecompiles.delegate(stakeAddress, amount);\n        bool success = result != 0;\n        return (success);\n    }\n\n    function _withdraw(uint256 amount) private returns (bool) {\n        uint256 result = StakingPrecompiles.undelegate(stakeAddress, amount);\n        bool success = result != 0;\n        return (success);\n    }\n\n    function _claim() private returns (bool) {\n        uint256 result = StakingPrecompiles.collectRewards();\n        bool success = result != 0;\n        return (success);\n    }\n\n    // ensure staking precompiles private\n    function delegate(address validatorAddress, uint256 amount)\n        public\n        override\n        returns (uint256)\n    {\n        if (true) revert(\"closed\");\n        return (super.delegate(validatorAddress, amount));\n    }\n\n    function undelegate(address validatorAddress, uint256 amount)\n        public\n        override\n        returns (uint256 result)\n    {\n        if (true) revert(\"closed\");\n        return (super.undelegate(validatorAddress, amount));\n    }\n\n    function collectRewards() public override returns (uint256) {\n        if (true) revert(\"closed\");\n        return (super.collectRewards());\n    }\n\n    // ensure contract can receive yield\n    receive() external payable {}\n\n    fallback() external payable {}\n}\n",
  "sourcePath": "/home/aetherium/Projects/Warrior/encodeXharmony/sc/contracts/Warrior.sol",
  "compiler": {
    "name": "solc",
    "version": "0.8.17+commit.8df45f5f.Emscripten.clang"
  },
  "schemaVersion": "3.4.10",
  "updatedAt": "2022-10-18T04:56:22.621Z",
  "networkType": "ethereum",
  "devdoc": {
    "kind": "dev",
    "methods": {
      "approve(address,uint256)": {
        "details": "See {IERC721-approve}."
      },
      "balanceOf(address)": {
        "details": "See {IERC721-balanceOf}."
      },
      "getApproved(uint256)": {
        "details": "See {IERC721-getApproved}."
      },
      "isApprovedForAll(address,address)": {
        "details": "See {IERC721-isApprovedForAll}."
      },
      "name()": {
        "details": "See {IERC721Metadata-name}."
      },
      "ownerOf(uint256)": {
        "details": "See {IERC721-ownerOf}."
      },
      "safeTransferFrom(address,address,uint256)": {
        "details": "See {IERC721-safeTransferFrom}."
      },
      "safeTransferFrom(address,address,uint256,bytes)": {
        "details": "See {IERC721-safeTransferFrom}."
      },
      "setApprovalForAll(address,bool)": {
        "details": "See {IERC721-setApprovalForAll}."
      },
      "supportsInterface(bytes4)": {
        "details": "See {IERC165-supportsInterface}."
      },
      "symbol()": {
        "details": "See {IERC721Metadata-symbol}."
      },
      "tokenByIndex(uint256)": {
        "details": "See {IERC721Enumerable-tokenByIndex}."
      },
      "tokenOfOwnerByIndex(address,uint256)": {
        "details": "See {IERC721Enumerable-tokenOfOwnerByIndex}."
      },
      "totalSupply()": {
        "details": "See {IERC721Enumerable-totalSupply}."
      },
      "transferFrom(address,address,uint256)": {
        "details": "See {IERC721-transferFrom}."
      }
    },
    "version": 1
  },
  "userdoc": {
    "kind": "user",
    "methods": {},
    "version": 1
  }
}